:1000000018570020A9780000733902007D7800009D
:100010007D7800007D7800007D7800000000000001
:100020000000000000000000000000004D71000012
:100030007D78000000000000ED7000007D78000079
:10004000D1710000398F0100D1710000D171000021
:10005000D1710000D1710000D1710000D171000098
:10006000D1710000D1710000D1710000D171000088
:10007000D1710000D1710000D1710000D171000078
:10008000D1710000D1710000D1710000D171000068
:10009000D1710000D1710000D1710000D171000058
:1000A000D1710000D1710000D1710000D171000048
:1000B000D1710000D1710000D1710000D171000038
:1000C000D1710000D1710000D1710000D171000028
:0C00D000D1710000D1710000D17100005E
:0400DC00FFFFFFFF24
:1000E00081F0004102E000BF83F0004330B54FEAE9
:1000F00041044FEA430594EA050F08BF90EA020F56
:100100001FBF54EA000C55EA020C7FEA645C7FEAE8
:10011000655C00F0E2804FEA5454D4EB5555B8BF0B
:100120006D420CDD2C4480EA020281EA030382EA7C
:10013000000083EA010180EA020281EA0303362D0E
:1001400088BF30BD11F0004F4FEA01314FF4801CE1
:100150004CEA113102D0404261EB410113F0004FF3
:100160004FEA03334CEA133302D0524263EB4303AA
:1001700094EA050F00F0A780A4F10104D5F1200E48
:100180000DDB02FA0EFC22FA05F2801841F10001A3
:1001900003FA0EF2801843FA05F359410EE0A5F177
:1001A00020050EF1200E012A03FA0EFC28BF4CF0A8
:1001B000020C43FA05F3C01851EBE37101F000455E
:1001C00007D54FF0000EDCF1000C7EEB00006EEB6B
:1001D0000101B1F5801F1BD3B1F5001F0CD34908F5
:1001E0005FEA30004FEA3C0C04F101044FEA44524C
:1001F00012F5800F80F09A80BCF1004F08BF5FEAD3
:10020000500C50F1000041EB045141EA050130BDB2
:100210005FEA4C0C404141EB0101013C28BFB1F5C4
:10022000801FE9D291F0000F04BF01460020B1FA0F
:1002300081F308BF2033A3F10B03B3F120020CDAE2
:100240000C3208DD02F1140CC2F10C0201FA0CF0C0
:1002500021FA02F10CE002F11402D8BFC2F1200C25
:1002600001FA02F120FA0CFCDCBF41EA0C019040DB
:10027000E41AA2BF01EB0451294330BD6FEA040424
:100280001F3C1CDA0C340EDC04F11404C4F120020F
:1002900020FA04F001FA02F340EA030021FA04F321
:1002A00045EA030130BDC4F10C04C4F1200220FA78
:1002B00002F001FA04F340EA0300294630BD21FAB6
:1002C00004F0294630BD94F0000F83F4801306BF7C
:1002D00081F480110134013D4EE77FEA645C18BF70
:1002E0007FEA655C29D094EA050F08BF90EA020F07
:1002F00005D054EA000C04BF1946104630BD91EAFF
:10030000030F1EBF0021002030BD5FEA545C05D101
:100310004000494128BF41F0004130BD14F5800440
:100320003CBF01F5801130BD01F0004545F0FE41B4
:1003300041F470014FF0000030BD7FEA645C1ABFE9
:10034000194610467FEA655C1CBF0B46024650EA20
:10035000013406BF52EA033591EA030F41F400214C
:1003600030BD00BF90F0000F04BF0021704730B5D2
:100370004FF4806404F132044FF000054FF00001A7
:1003800050E700BF90F0000F04BF0021704730B568
:100390004FF4806404F1320410F0004548BF40423D
:1003A0004FF000013EE700BF42004FEAE2014FEA92
:1003B00031014FEA02701FBF12F07F4393F07F4F6D
:1003C00081F06051704732F07F4208BF704793F070
:1003D0007F4F04BF41F40021704730B54FF4607483
:1003E00001F0004521F000411CE700BF50EA010286
:1003F00008BF704730B54FF000050AE050EA01022F
:1004000008BF704730B511F0004502D5404261EB9E
:1004100041014FF4806404F132045FEA915C3FF4DF
:10042000D8AE4FF003025FEADC0C18BF03325FEA7C
:10043000DC0C18BF033202EBDC02C2F1200300FA2D
:1004400003FC20FA02F001FA03FE40EA0E0021FA52
:1004500002F11444BDE600BF70B54FF0FF0C4CF440
:10046000E06C1CEA11541DBF1CEA135594EA0C0FF2
:1004700095EA0C0F00F0DEF82C4481EA030621EA2D
:100480004C5123EA4C5350EA013518BF52EA033568
:1004900041F4801143F4801338D0A0FB02CE4FF01A
:1004A0000005E1FB02E506F00042E0FB03E54FF04A
:1004B0000006E1FB03569CF0000F18BF4EF0010E42
:1004C000A4F1FF04B6F5007F64F5407404D25FEA3E
:1004D0004E0E6D4146EB060642EAC62141EA5551F1
:1004E0004FEAC52040EA5E504FEACE2EB4F1FD0C33
:1004F00088BFBCF5E06F1ED8BEF1004F08BF5FEAB1
:10050000500E50F1000041EB045170BD06F0004662
:1005100046EA010140EA020081EA0301B4EB5C040F
:10052000C2BFD4EB0C0541EA045170BD41F4801107
:100530004FF0000E013C00F3AB8014F1360FDEBF2C
:10054000002001F0004170BDC4F10004203C35DA08
:100550000C341BDC04F11404C4F1200500FA05F38B
:1005600020FA04F001FA05F240EA020001F000422C
:1005700021F0004110EBD37021FA04F642EB0601A2
:100580005EEA430E08BF20EAD37070BDC4F10C04CC
:10059000C4F1200500FA04F320FA05F001FA04F290
:1005A00040EA020001F0004110EBD37041F100017C
:1005B0005EEA430E08BF20EAD37070BDC4F1200587
:1005C00000FA05F24EEA020E20FA04F301FA05F2EF
:1005D00043EA020321FA04F001F0004121FA04F297
:1005E00020EA020000EBD3705EEA430E08BF20EA67
:1005F000D37070BD94F0000F0FD101F000464000A1
:1006000041EB010111F4801F08BF013CF7D041EA22
:10061000060195F0000F18BF704703F00046520026
:1006200043EB030313F4801F08BF013DF7D043EAF7
:100630000603704794EA0C0F0CEA135518BF95EAAD
:100640000C0F0CD050EA410618BF52EA4306D1D134
:1006500081EA030101F000414FF0000070BD50EA53
:10066000410606BF1046194652EA430619D094EADD
:100670000C0F02D150EA013613D195EA0C0F05D1C7
:1006800052EA03361CBF104619460AD181EA03011B
:1006900001F0004141F0FE4141F470014FF00000D3
:1006A00070BD41F0FE4141F4780170BD70B54FF06E
:1006B000FF0C4CF4E06C1CEA11541DBF1CEA1355EE
:1006C00094EA0C0F95EA0C0F00F0A7F8A4EB0504D0
:1006D00081EA030E52EA03354FEA013100F08880C7
:1006E0004FEA03334FF0805545EA131343EA126390
:1006F0004FEA022245EA111545EA10654FEA002645
:100700000EF000419D4208BF964244F1FD0404F5FD
:10071000407402D25B084FEA3202B61A65EB030559
:100720005B084FEA32024FF480104FF4002CB6EB16
:10073000020E75EB030E22BFB61A754640EA0C0096
:100740005B084FEA3202B6EB020E75EB030E22BFD6
:10075000B61A754640EA5C005B084FEA3202B6EB17
:10076000020E75EB030E22BFB61A754640EA9C00D6
:100770005B084FEA3202B6EB020E75EB030E22BFA6
:10078000B61A754640EADC0055EA060E18D04FEA64
:10079000051545EA16754FEA06164FEAC30343EA04
:1007A00052734FEAC2025FEA1C1CC0D111F4801FD1
:1007B0000BD141EA00014FF000004FF0004CB6E7CA
:1007C00011F4801F04BF01430020B4F1FD0C88BF69
:1007D000BCF5E06F3FF6AFAEB5EB030C04BFB6EB74
:1007E000020C5FEA500C50F1000041EB045170BD67
:1007F0000EF0004E4EEA113114EB5C04C2BFD4EB94
:100800000C0541EA045170BD41F480114FF0000E17
:10081000013C90E645EA060E8DE60CEA135594EA93
:100820000C0F08BF95EA0C0F3FF43BAF94EA0C0F96
:100830000AD150EA01347FF434AF95EA0C0F7FF40B
:1008400025AF104619462CE795EA0C0F06D152EA5F
:1008500003353FF4FDAE1046194622E750EA410643
:1008600018BF52EA43067FF4C5AE50EA41047FF454
:100870000DAF52EA43057FF4EBAE12E77BB972B9D4
:100880000029BEBF00204FF0004106E008BF00284D
:100890001CBF6FF000414FF0FF3000F057B8ADF1D2
:1008A000080C6DE904CE002909DB002B1ADB00F0EF
:1008B0004FF8DDF804E0DDE9022304B07047404260
:1008C00061EB4101002B1BDB00F042F8DDF804E096
:1008D000DDE9022304B0404261EB4101524263EB87
:1008E00043037047524263EB430300F031F8DDF8F5
:1008F00004E0DDE9022304B0404261EB41017047AE
:10090000524263EB430300F023F8DDF804E0DDE935
:10091000022304B0524263EB4303704753B94AB910
:10092000002908BF00281CBF4FF0FF314FF0FF30F7
:1009300000F00CB8ADF1080C6DE904CE00F008F839
:10094000DDF804E0DDE9022304B07047704700BF22
:100950002DE9F04F07468C460846099E15463C4651
:100960001946002B40F0C6808242B2FA82F746D97F
:100970004FB1C7F1200E24FA0EFE00FA07F3BD4076
:100980004EEA030CBC404FEA15481FFA85FEBCFB3B
:10099000F8F9220C08FB19C309FB0EFA42EA0343DB
:1009A0009A4528D9EB1809F1FF3004D29A4502D9AB
:1009B000A9F102002B44A3EB0A03A4B2B3FBF8F2A3
:1009C00008FB123302FB0EFE44EA0344A64514D989
:1009D0002C1902F1FF3303D2A64501D9931E2C44F2
:1009E000A4EB0E0443EA00401EB1FC400023346037
:1009F0007360BDE8F08F4846DDE71346F0E702B9C3
:100A0000FFDE87BB831A01214FEA154EAAB2B3FB62
:100A1000FEFC200C0EFB1C330CFB02F840EA0343E7
:100A2000984563D9EB180CF1FF3004D2984502D9F0
:100A3000ACF102002B44A3EB0803A4B2B3FBFEFC11
:100A40000EFB1C330CFB02F244EA0344A2424FD9D2
:100A50002C190CF1FF3304D2A24202D9ACF10203EB
:100A60002C44A41ABEE7C7F1200C20FA0CF800FAB7
:100A700007F324FA0CFCBD404CEA03024FEA154E82
:100A8000ABB2B8FBFEFC110C0EFB1C800CFB03F997
:100A900041EA0040814504FA07F423D928180CF1F3
:100AA000FF3104D2814502D9ACF102012844A0EB08
:100AB000090092B2B0FBFEFC0EFB1C000CFB03F81D
:100AC00042EA004398450FD9EB180CF1FF3204D2EB
:100AD000984502D9ACF102022B44A3EB080342EA89
:100AE000014191E76146E2E76246F6E76046A2E728
:100AF0006346B6E7834205D90EB1C6E9007000210E
:100B0000084676E7B3FA83F181B9834201D3BA424A
:100B10000AD8BC1A60EB030301209C46002E68D063
:100B2000C6E9004C002164E70846F7E7C1F1200C54
:100B30008B4022FA0CF41C4302FA01F500FA01F38F
:100B400027FA0CF220FA0CFB4FEA14491343BBFBC3
:100B5000F9F81FFA84FE09FB18BB1A0C08FB0EFA01
:100B600042EA0B42924507FA01F73ED9A21808F172
:100B7000FF3004D2924502D9A8F102002244A2EB30
:100B80000A029BB2B2FBF9F809FB182208FB0EFE21
:100B900043EA024296452AD9A21808F1FF3304D24B
:100BA000964502D9A8F10203224443EA0040A0FB83
:100BB0000593A2EB0E029A42CE46984602D306D186
:100BC0004F4504D2B9EB050E63EB0408013886B13A
:100BD000B7EB0E0362EB080707FA0CFCCB404CEABC
:100BE0000303CF40C6E900379CE74046C7E74346CA
:100BF000DBE73146FDE6000001282DE9F84F0F46FE
:100C000009D0042851D01EF0B3FC162303604FF026
:100C1000FF30BDE8F88F4FF02003EFF3118283F32C
:100C20001288BFF36F8F264BD3E900699D6882F36A
:100C30001188BFF36F8F25F0E1FBDFF88880C0F3E8
:100C40000E04A4FB0843C00B40EA4140E40BA0FBA8
:100C5000080A44EA4344C90B241808FB01A141F1E6
:100C6000000A15A3D3E9002320465146FFF756FE9C
:100C700010EB060B49EBE076C7E900B60EA3D3E90B
:100C8000002320465146FFF749FE0F4B15449D4275
:100C9000BD6008D91BF1010346F10006C7E9003623
:100CA000A5EB0805BD600020B3E700252E46A94648
:100CB000C1E700BFAFF3008000CA9A3B000000000C
:100CC000A813002000CA9A3BFFC99A3B000000000D
:100CD0000128F8B50E4606D01EF04AFC1623036024
:100CE0004FF0FF30F8BD25F089FB234A3368746864
:100CF000B668A3FB023502FB04559C194FEAD033BA
:100D000043EA414345EBE675C90BA3FB0236C0F34A
:100D10000E0002FB0161A0FB0202E41A4FEAD0338D
:100D200043EA424365EB0105E41A65F100054FF023
:100D30002003EFF3118783F31288BFF36F8F0CA3A7
:100D4000D3E9002320462946FFF798FD0B4E08A360
:100D5000D3E90023C6E9000120462946FFF78EFDAE
:100D6000B26087F31188BFF36F8F0020BAE700BF2E
:100D700000CA9A3B0000000000CA9A3BA81300205A
:100D80002DE9F04F002491B0CDE90744FF23DFF8AF
:100D900070A18DF81B30054604264FF0020809AB00
:100DA0000293584B019307AB00930DF11B0208AB64
:100DB00003210020DDF820B0CDF824800EF0D2FD14
:100DC0000228814666D0099F9DF81B30002F65D010
:100DD0004D4ACDF800900821284621F0ACFB4B4A43
:100DE0004B4F23460821284621F0A5FB089E4FF0D3
:100DF0000709A6FB070140A3D3E9002309FB06115D
:100E0000FFF78CFD434A009033460821284621F025
:100E100092FB0597002C6CD03F4ADFF800A1082117
:100E2000284621F088FB3E4A0821284621F083FB12
:100E30003C4A0821284621F07EFB374A08212846F3
:100E400021F079FB0DF128080027D8F80460059BF4
:100E500018F808BBA6FB030109FB061126A3D3E97A
:100E60000023FFF75BFD0137CDE900605B4652468A
:100E70000821284621F05FFBFBB29C42E5D82846BA
:100E8000254A082121F057FB002017E0032100200C
:100E90000EF0AEFD099B022BF8D094E7FF2B97D004
:100EA000089B5B4515D0013E16F0FF0609D1284688
:100EB0001D4A082121F03FFB6FF00A0011B0BDE888
:100EC000F08F34B1334652460821284621F033FBD7
:100ED0003C4610AB03EBC40301349DF81B2003F820
:100EE000182CE4B2079A43F8142C022C7FF657AF63
:100EF00075E72046E2E700BF00CA9A3B0000000009
:100F000084C902009755020041C90200A8C9020025
:100F10008D49FD1AB6C90200C8C902000DCA0200F7
:100F2000DFC90200F6C9020060C90200000000002B
:100F30002DE9F041D0E90B35866A5C193034A642C0
:100F40008846174618D81C4DA3FB050118A3D3E902
:100F50000023FFF7E3FCA41B20F07F40C8F800004B
:100F600013A3D3E90023A4FB0501FFF7D7FC20F06E
:100F70007F403860BDE8F0810F4C0DA3D3E900231A
:100F8000A6FB0401FFF7CAFC05F1300120F07F4009
:100F9000C8F8000006A3D3E90023A1FB0401FFF772
:100FA000BDFC20F07F403860BDE8F081AFF30080E9
:100FB0008D49FD1A0700000000CA9A3B000000009E
:100FC0002DE9F04FAB4C8FB094F86A20002800F068
:100FD000398112F0010740F0B78194F82500FF2312
:100FE00000F0030084F8263017F04AFC94F86A00F9
:100FF00041072DD494F8292094F8353004EB82026F
:1010000004EB8303D2F82C80D3F83890B8F1000FAA
:1010100011D09848414612F007F898F800305A0667
:1010200005D506210DF00EFA002800F0C98191487F
:10103000494611F0F9FF98F8003013F00E0F40F018
:10104000EE80236A9BB10C2738460FB0BDE8F08FC5
:101050003A4604F16B01C0F3C00017F077FDFF289A
:1010600084F82600C6D0384617F024FCC2E710F0FA
:10107000C1FE8246002800F0AD8110F0C7FE834615
:10108000002800F0AC8112F0BDFE0546002800F0FB
:10109000A381406F4FF6FF732B8505F11C030028D9
:1010A00000F0948105F1680205F164010B930DF0E5
:1010B000D5F9B5F86020704B22F4EF6222F00702F8
:1010C00042F4887242F00102A5F8602095F83920B8
:1010D00002F03F0262F07F0285F8392095F87A200D
:1010E00022F0070285F87A2095F83C2022F00702CA
:1010F00085F83C2095F8D82022F0070285F8D82002
:101100004FF01B120026C5E916230622A5F8C020C1
:10111000C5E912666E67A5F87860EE852E6385F8DE
:101120003B602E65A5F8C460A5F8C860A5F8D0603E
:10113000A5F8CC60A5F8E46085F8E660C5F808611C
:10114000A5F80C61A5F8206110F03CF995F83A215A
:10115000A5F8386122F0030285F83A2195F87A2043
:10116000A5F8406122F0180285F87A2095F86621EA
:1011700085F8436122F0070285F8662195F88621FB
:10118000C5F844A166F3451285F8862195F8AE218D
:10119000A5F8646166F3C302C5E94A010021002095
:1011A000C5E94C0185F8AE2185F8D960A5F88461C0
:1011B000C5F8E060A5F8AC61A5F8B86113F068F96E
:1011C000A5F8D20013F06AF9D5F8BC112B4AA5F89E
:1011D000D4000A40C5F8BC2113F066F995F8C02187
:1011E00060F3020285F8C02113F064F90B9B2362BF
:1011F00095F8C031C5F8C46160F3C503C4E918AB04
:10120000C5E97466C5E97266C5E905662E70ED61CB
:1012100085F8C03118F0DEFB002840F0D38094F848
:1012200024300121C3F342030DF133008DF8333034
:101230000DF094FA20BB236A002B3FF404AF11F0A9
:10124000C9FB00E712F001073FF4FEAE236A5BB171
:1012500093F8202042F0020283F82020236A93F8BA
:101260002030D8073FF5EFAE0FB0BDE8F04F11F0DA
:10127000F3BB00BF2C2B0020480148010000FFF603
:1012800099F801100246404611F08AFC5849B4F81A
:10129000689031230025A360A0FB010152A3D3E98C
:1012A0000023C4E9055525706560E560FFF736FB4E
:1012B00020610EF0B5FB0646B9F1000F08D198F891
:1012C000005005F00F05A5F10105B5FA85F56D098A
:1012D00094F82400236965F3000010F0010584F8F8
:1012E000240036D00020434ADFF80C9104930225F5
:1012F0000DF13408019305920321CDE90200069413
:1013000033460090CDF82080CDF81C902A460D95EC
:101310000EF05CFA414610F0FDFD00288BD1374AF3
:1013200005924AF2D8320092CDE90300CDE90100DE
:10133000CDF81C90CDF8208006943346012203217D
:101340000D950EF043FA2EE0002738460FB0BDE8A9
:10135000F08F2B4A2B48049303F24713A9FB00019B
:10136000069402951360912303FB0911224B079306
:10137000204B05934FF6FF7309924FF00209039338
:101380000DF1340818A3D3E90023CDF83490CDF83B
:101390002080FFF7C3FA3346CDE900504A4628467D
:1013A00003210EF0BDF9414610F0B4FD00287FF492
:1013B00042AF94F86A3043F0010384F86A3043E6A0
:1013C000122741E611F006FB03273DE605F16C000C
:1013D000686767E6072737E6584610F01DFD504658
:1013E00010F00EFD07272FE68D49FD1A07000000BB
:1013F00000CA9A3B112C0100651401006527010009
:10140000A02B0020002AE78470B590F824308AB021
:10141000C3F342030D46044601210DF12300164695
:101420008DF823300DF09AF971780246284611F0B4
:10143000B7FB1D491AA3D3E90023A0FB0101FFF765
:101440006DFA23699842054620D21B1A00220192A8
:10145000164A0293164BA21AA3FB023202219209EA
:1014600000230A4409AE099112490591CDE90333DD
:101470000321D2B20696009318460EF019FA3146AF
:1014800010F048FD48B925610AB070BD02D9C21AF2
:101490000023DCE700200AB070BD0C200AB070BD4C
:1014A0008D49FD1A0700000000CA9A3B2C2B002032
:1014B00009CB3D8D651401002DE9F04FC38D468E9B
:1014C0001E4490F80E31B6B2314413F007038BB0CE
:1014D00004461FFA81F940F0A381B0F8E870A9EB47
:1014E00007011FFA81F9090400F10C82904690F976
:1014F0003920002AC0F2358194F8E43084F8E530D0
:1015000094F8842194F8853194F80C1184F80D1125
:10151000934206D094F8863103F00F03062B00F0B7
:101520004782B14BD4F808511A68944204BF002294
:101530001A60002D00F044812868002800F04081E6
:10154000B4F81031B4F82AC04268C4F808216345E1
:10155000B4F81221B4F8141100F01781B4F828C0BF
:10156000EB8318232B710023A5F806C02A84698415
:101570002B77294610F056FC10F05EFCA368002B78
:10158000C0F2F780608DB4F8105110FB09F080B202
:10159000B0FBF5F115FB01F39BB298421FFA81FAFB
:1015A000C0F0CE8005FB110140F2E2438F4889B2C2
:1015B00003FB01F1A1FB000189A3D3E90023FFF79D
:1015C000ADF9A8EB0008E38D1F4494F93930BE1B38
:1015D000564440F2E247002BE68507FB05F6C0F2D1
:1015E0009681834A8349844840F69C431FF0E5FD79
:1015F000404080F311884FF0030002DF0027B3461C
:101600007E4AB4F814317E49B4F81201A085324400
:10161000B2FBF6F2A4F8C62042F2107202FB03639A
:101620003144013BB1FBF6F1B3FBF6F6B4F81031EF
:1016300063858AB2831D9A42A4F8C260A4F8CE20C2
:1016400004DDC0F57F43FA331A4492B294F80E31A8
:10165000A4F8CA201B0744BF0023A4F8C430022109
:1016600001201AF06BFB00220221814601200CF0C0
:1016700045FF64494FF4F07220460CF0CFFE00F1B4
:10168000030A5FFA8AFA604B009452460121002057
:101690000EF026F930F002030CD0554A5B4956484B
:1016A00040F6CB431FF089FD404080F311884FF096
:1016B000030002DF4D4EABFB066B49A3D3E90023C9
:1016C00030465946FFF72AF9089420F07F450694E2
:1016D0004F4823690493A5FB0001072303FB051171
:1016E0004C4B07934C4B0593301A4FF6FE736BEB44
:1016F000010103934FF47A720023FFF70FF9434679
:10170000CDE9015000975246012100200EF05EF80D
:1017100030F002030CD0364A3C49374840F6E543E6
:101720001FF04BFD404080F311884FF0030002DFB3
:10173000B9F1000F40F0368100200BB0BDE8F08F0A
:101740001B1A2A4940F2E24003FB00F0A0FB010112
:1017500023A3D3E90023FFF7E1F820F07F40804482
:1017600031E790F8D920002A3FF4C6AE80F8D9308E
:10177000C6E6E168626823F0004391422CBF8844CA
:101780009044A360A8EB0308FCE6B4F82CC0944591
:101790007FF4E4AE40F2E24C0CFB03FE42F2107C1C
:1017A0000CFB01EC0CF1FF3CBCFBFEFCB4F8C2E00E
:1017B0001FFA8CFCE6457FF4D1AE01232B71D8E6ED
:1017C0000B4A16490C484FF442631FF0F6FC4040A8
:1017D00080F311884FF0030002DF2868B0E600BFF5
:1017E0008D49FD1A07000000C02B002000CA9A3B5B
:1017F0003C830200947D0200FC7C0200FF596202DF
:101800007FC3C90168190020753601001C840200DD
:101810008D49FD1A1D3601007D7C010008840200FF
:10182000012010F00FFB0646002800F0CF8074481E
:101830000CF0BEFD0546002800F0C880714B1A6808
:10184000002A00F0BB8010F01BFB2B793268D4F823
:101850000811516043F00303C4F8086100202B71A4
:101860000C236B71E87194F81C312B72664AD4F822
:101870001831A18DA2FB03239B0AA5F80930B4F807
:101880001031A5F80B30B4F8123194F80E21A5F8F8
:101890000D300631B4F81431A5F80F304944D4F8AE
:1018A000C43189B260F30202A4F8E81084F80E2172
:1018B000A5F81110BBB194F86621960713D494F8DB
:1018C000BF21D0070FD4D4F8D0219342D4F8C82137
:1018D0007FD062B91A7902F00302032A00F08580F2
:1018E000C4F8C83105E0D4F8C821002A68D0D4F87B
:1018F000CC311A682A601D602B68C4F8CC510BB932
:10190000C4F8D4516FF076000BB0BDE8F08F226CB4
:10191000A36C02FB1933A36418F0C6F8054694F8CB
:10192000D800C0F3C20018F0C1F8054406FB05F565
:10193000364B94F81C2105F5742505F23F25A3FBD1
:101940000535AD0C07FB02F2A36C226505FB0AF01E
:1019500072080344963A934228BF13462564A6EBC7
:10196000050B2B4DC4E911230023C4F8E030A0FB84
:10197000050121A3D3E90023FEF7D0FF2249A8EBFC
:101980000008D4F81801A1FB0030800A07FB00F022
:1019900019A3D3E90023A0FB0501FEF7BFFF20F048
:1019A0007F472DE60122022110460CF0A7FDC3E679
:1019B000002384F88521A4F8C830B2E51C6042E712
:1019C0002B60C4E97155C4F8CC5198E76FF06800FA
:1019D000B3E61968C4F8D011002A88D11A682A60C1
:1019E0001D602B68C4E9725589E7DA79032AF5D0BE
:1019F0000A2A7FF475AFF1E78D49FD1A0700000050
:101A0000542C0020C02B00205917B7D183DE1B4374
:101A100000CA9A3B000000002DE9F04F0B68D2F895
:101A200000801B6897B00C460A93037F00F11E01EB
:101A3000C3F380130546174614A806228DF84730D5
:101A400022F0CAF994F81190B9F1FF0F0DF1480B8B
:101A50005BD05A460DF14701484616F021FC9DF82F
:101A6000473002338DF847302946032251F82E6B58
:101A700007F1080007F1040A22F0AEF907F1180394
:101A8000042205F12A0150460B9322F0A5F90B9B85
:101A9000052205F13A01184622F09EF90B9B05211B
:101AA00018460CF05BFE7B7F95F83F2000F03F006E
:101AB00060F305037B77C2F30403BB77AB8EFB8136
:101AC000012899B202F01F0305D91B3303F01F034D
:101AD0000B2B00D8F9B90A9BEC6800225A6197F8E1
:101AE0002030304662F30003012687F82030294673
:101AF0002E7110F097F920682671214610F092F9A6
:101B000010F09AF917B0BDE8F08F062214A95846D4
:101B100022F062F9A8E723680020586095F83700A2
:101B200095F8363043EA00233B8298F8D8305209C2
:101B300062F3C5036A8E0D9240F2E24202FB01F0AD
:101B400088F8D8300B9017F0AFFF0C9098F8D800B9
:101B5000C0F3C20017F0AAFF0C9BC54903440B98C1
:101B600000FB03F303F5742303F23F23A1FB0323DC
:101B70009B0C7B6295F83130398A40F2E24203FBDC
:101B800002F24308963BBA63BB622B8FB94AADF8A9
:101B90003A309E46B84B844603440244B3FBF0F30C
:101BA000B2FBF0F242F21070A8F8C6201FFA8EF2D3
:101BB00000FB02C2013A881DB2FBFCF2A8F8C22069
:101BC0009AB28242A8F8CE2004DDC1F57F41FA31F5
:101BD0000A4492B2A8F8CA205146042208F1DC0057
:101BE00022F0FAF82B4613F81C2FC2F34011DA0743
:101BF0000F910C9100F115814FF48073AB830A9B18
:101C000093F8260017F0BCF80146062205F12B00D8
:101C1000002900F0EB8005F1240122F0DDF8B9F194
:101C2000FF0F05F1250000F0E48014A9062222F040
:101C3000D3F89DF84730AB775946062205F11F00CF
:101C400022F0CAF898F8D830FA896A863A8AAA86C1
:101C5000C3F3C203BDF83A2085F83830EA8640461F
:101C600012F0DCF82946B881E8806568304610F04B
:101C7000D9F8BB89EB801B232B710C9B2E68002BA2
:101C800040F0BC809DF83C302B772946304610F060
:101C9000C9F810F0D1F897F84500B7F84050B7F8F8
:101CA0004260012100F0070017F0F6FC2E4406F513
:101CB000E1763118824671484FF000093123C8F8A7
:101CC0000830A1FB000168A3D3E90023C8F8049001
:101CD000C8F80C90FEF722FE0B9B7E6A0D9AE56811
:101CE0009E1B40F2E24303FB025520F07F4005F2C9
:101CF000B245A5EB0A034A460221C8F810000120AC
:101D00000B930CF0FBFB0A9D284611F049F9821C4D
:101D10005B4B0095D2B2484601210DF0E1FD012850
:101D200000F08C800A9B93F82430DB0771D4404686
:101D300012F074F8DFF84491A6FB09564AA3D3E9E0
:101D40000023834631462846FEF7E8FDA368CDF818
:101D500018800BF10304A3F13A0B4A4B07934A4B4B
:101D600005934FF4E4730893D8F8103020F07F47C0
:101D700046484FF0000ACDE903A3A7FB0001072363
:101D8000281A03FB071166EB01014FF47A72002356
:101D9000FEF7C4FD0B9BCDE90170A3FB090132A343
:101DA000D3E90023FEF7BAFDE4B220F07F400090B3
:101DB0005B462246012150460DF008FD30F002033B
:101DC0000CD0334A3349344840F2C9131FF0F5F9B7
:101DD000404080F311884FF0030002DF012202210E
:101DE00010460CF08BFB17B0BDE8F08F21F0FFFF21
:101DF00015E70622002121F0FAFF1AE77B7F43F066
:101E000040037B77504616F057F80123F8832B7771
:101E10003BE7002301220093184611460DF060FDB8
:101E200085E71B4A1D491C48F1231FF0C6F94040B5
:101E300080F311884FF0030002DFDDE610F0A8F810
:101E40000A9B83423FF46EAF114A1549124840F293
:101E50009F231FF0B2F9404080F311884FF0030038
:101E600002DF5FE7AFF300808D49FD1A0700000035
:101E700083DE1B43FF5962027FC3C90100CA9A3B3C
:101E8000417C0100117C01007D7C01008D49FD1A1F
:101E9000448502001C840200FC7C0200007F0200DA
:101EA000A0850200000000002DE9F047164690B022
:101EB00005460F46002209A9304621F0FBFD099B8B
:101EC0001B780446A3B1DFF81881002458F8041BDE
:101ED000304621F03BFF58B10134392CF6D1284669
:101EE000404A3346012120F026FB6FF0850027E0B1
:101EF000BB680AAA1B69A1B23846984700281FDBB5
:101F00000B98FEF73FFA34A3D3E90023FEF7CEFB8C
:101F100006460A980F46FEF735FA02460B4630464B
:101F20003946FEF7E3F8382C06460F460BDDCDE9BF
:101F300000672D4A23460821284620F0FCFA00209D
:101F400010B0BDE8F087264B53F824A024F004031A
:101F5000032B0CD00B2C0AD0CDE90267234ACDF815
:101F600000A023460821284620F0E5FAE7E70F986D
:101F7000FEF708FA18A3D3E90023FEF797FB804683
:101F80000E988946FEF7FEF902460B464046494642
:101F9000FEF7ACF8CDE906010D98FEF7F3F90EA3B4
:101FA000D3E90023FEF782FB80460C988946FEF7B2
:101FB000E9F902460B4640464946FEF797F8CDE957
:101FC0000267CDE904010A4ACDF800A023460821A2
:101FD000284620F0B0FAB2E70000000080842E41CD
:101FE000E806002060CF0200F1CE020010CF020010
:101FF0002CCF020008B5034A082120F09CFA0020EB
:1020000008BD00BF5892020008B5034A082120F01D
:1020100092FA002008BD00BF799202002DE9F34139
:102020000B460D46174608210B4ADFF8308006465E
:1020300020F081FA0024AC4203D1002002B0BDE8B8
:10204000F08157F824300093424623460821304659
:1020500020F071FA0134EEE77F9202008B920200C9
:1020600008B5034A034B082120F065FA002008BD9B
:10207000A39202009D9202002DE9F8430B460D4603
:10208000174608210E4ADFF83C90064620F053FA26
:102090000024AC4202D10020BDE8F88323464A4622
:1020A0000821304620F047FA57F82480404621F0B6
:1020B0003DFE41460246304620F04AFA0134E8E748
:1020C0007F920200B692020070B50F4E044633783C
:1020D0000D4639B133B10D4A012120F02CFA6FF0D1
:1020E0000F0070BD83F00103337033B1084A08213B
:1020F000204620F020FA012333702046294620F0A4
:1021000054FA0020EDE700BF8A360020C192020099
:10211000F59202000149FFF7D7BF00BF212100005F
:102120002DE9F041264C2378182B05460CD0501E83
:102130000F4646180B46B34216D10B5C2370DFF8EE
:1021400084808E180C4621E00B78112BEFD11E4AAB
:102150000821284620F0EFF900212846FFF7B4FFB8
:1021600000232370BDE8F08113F801CBBCF1180FF8
:10217000E1D193F800C0BCF1110FDCD1E7E714F80E
:10218000013B42460221284620F0D5F9A642F6D16D
:102190000E4A0F4E0221284620F0CDF9BC4206D14E
:1021A00028460C4ABDE8F041022120F0C4B917F8D6
:1021B000013B32460221284620F0BDF9EEE700BF80
:1021C0008B360020319302002493020037930200E3
:1021D000FEA50200DA9E02000B4800B5036803F07A
:1021E0000703022B89B00AD9084B069302230193F7
:1021F0000593002305AA4FF486511FF088FF09B00C
:102200005DF804EB00F078B8E40800203A9302008F
:1022100010B50446044824F02EF92046034A08214C
:1022200020F089F9002010BDA80900204993020080
:1022300013B541F69A12044600230648CDE900235F
:102240001EF006FD2046044A082120F074F9002003
:1022500002B010BDA80900205B93020007B503235C
:1022600000931368034A082120F065F9002003B0A9
:102270005DF804FB6E93020013B50024009413680C
:10228000034A082120F057F9204602B010BD00BFD4
:102290006E93020007B5012300931368034A0821D7
:1022A00020F049F9002003B05DF804FB6E930200B2
:1022B00007B5022300931368034A082120F03BF975
:1022C000002003B05DF804FB6E93020013B54FF4D9
:1022D000A472044600230648CDE900231EF0B8FC92
:1022E0002046044A082120F026F9002002B010BD43
:1022F000A80900205B93020010B51A4C236803F074
:102300000703022B88B00BD9174B069302230193C6
:102310000593002305AA4FF4865120461FF0F7FECF
:10232000236813F0060F0BD0104B06930223019382
:1023300005930C48002305AA4FF484511FF0E7FED3
:1023400023685B070BD00A4B069302230193059386
:102350000448002305AA4FF482511FF0D8FE08B0AC
:1023600010BD00BFE8080020239502003095020050
:1023700040950200084B1B7883420AD9074B00EBBB
:10238000401018440023C1E90233054B08604B603C
:10239000704700230B607047203900208C360020E6
:1023A000559502002DE9F84F1E4FDFF87C90064648
:1023B00092464FF0000B3A78DAF804305FFA8BF46B
:1023C000A24207D8194A0121304620F0B4F86FF034
:1023D000070517E004EB4418C8441946404621F0AD
:1023E000B5FC0BF1010B05460028E4D1132C0CD1F0
:1023F00089F873023B780E4A013B082130463B7056
:1024000020F099F82846BDE8F88F3A78121B01347D
:1024100004EB441402EB421209EB0401404621F0A4
:10242000C3FCE7E7203900208C3600208E9502009F
:10243000709502002DE9F341124E3378054643B9F9
:10244000114A032120F077F86FF0070002B0BDE8D1
:10245000F0810E4A0E4FDFF83C80082120F06BF827
:1024600000243178E3B2994201D80020EEE703EB73
:1024700043113944009142460821284620F05BF878
:102480000134EEE720390020A8950200C99502002A
:102490008C360020E09502002DE9F743DFF85480E8
:1024A000DFF8549006461546002798F80020696822
:1024B000FBB29A4209D800912B68104A012130469C
:1024C00020F039F86FF007040FE003EB431309EB3A
:1024D000030021F03BFC013704460028E5D16B687E
:1024E000074A0821304620F026F8204603B0BDE810
:1024F000F08300BF203900208C360020FF950200B9
:10250000EA9502002DE9F7432A4E3378132B05464E
:10251000144608D9284A012120F00DF86FF0070071
:1025200003B0BDE8F083506821F000FC80B22028A1
:102530000FD8676800239AB290420ED81F4F4FF011
:102540000008B9466168384621F000FC90B91C4A81
:1025500000E01C4A01212846DEE7FA5C42F0200137
:102560006139192904D9303A092A01D9164AF1E703
:102570000133E0E708F10108B8F1140F07F1210772
:10258000E0D1307862681149431C00EB4010002410
:102590004844337005F0BAFA0D4B3178074800947F
:1025A000212221F041FB28460A4A08211FF0C3FFDF
:1025B0002046B5E720390020199602008C3600200D
:1025C000809602003096020042960200F19F0200BF
:1025D0008B0F02009496020013B502F08FFF0446A1
:1025E00002F08CFF042382680093D2F86022034932
:1025F0000123204603F0B6FC02B010BD7C68020047
:1026000038B5054602F07AFFA842044607D02846AE
:10261000084A01211FF08FFF6FF0150038BD064AF0
:1026200008211FF088FF204604491FF040FF0020CA
:10263000F4E700BF389802005F98020041260000CE
:1026400010B5084CA3682BB19B6C1BB10649002246
:1026500020469847A3689B6A1BB1BDE8104001481B
:10266000184710BD7C6802006D26000070B5044656
:1026700083685B6C03B19847A3685B6B9BB9234D80
:10268000234EA3689B6923B101222946204698471F
:1026900068B13378002BF4D1A368DB69002BF0D04C
:1026A00020469847EDE7204698470028E7D1A368E1
:1026B0005B6A63B9164D2B7873B9A3685B691BB16C
:1026C000124901222046984701232B7003E020463F
:1026D00098470028EED170BD00232B70A3681B6AB9
:1026E0000BB120469847094B1B78782BF3D1A36890
:1026F000DB6A0BB1204698470648074923F0B6FC31
:10270000BDE8704003481DF0F9BC00BF213900202E
:1027100022390020781E0020D92500002DE9F04F35
:1027200005468BB0184615F00303DDF85080039280
:102730000E46019340F0F5812C1D002D40F0F481F0
:1027400001F00706341DC6F108064FF0000A042701
:10275000411ECDF808A0CDF800A05246B94605B1FB
:102760002060039B03F0010ECE4B9842C0F02A81FB
:10277000CD4B984280F02681BEF1000F00F03C81E5
:102780004FF0010CA4EB050BBEF1000F00F01D8112
:10279000BBF5007FC0F019816FF01500F5E032B98C
:1027A000252B40F02C8101220427B94627E12B2B51
:1027B00024D81F2B01D8002221E1A3F120000B28EF
:1027C000F9D80FF2080C5CF820F000BFFF290000D8
:1027D000B7270000B7270000FF290000B727000037
:1027E000B7270000B7270000B7270000B727000071
:1027F000B7270000A3290000FF290000A3F12D0046
:102800005FFA80FCBCF14D0FD5D84D28D3D80FF21C
:10281000080C5CF820F000BFFF290000FF29000031
:10282000B7270000FF290000FF290000FF29000052
:10283000FF290000FF290000FF290000FF290000F8
:10284000FF290000FF290000FF290000B727000032
:10285000B7270000B7270000B7270000B727000000
:10286000B7270000B72700006B290000B72700003A
:10287000B7270000B72700006B2900006B29000074
:102880006B290000B7270000B7270000B72700001A
:10289000B7270000FF290000B7270000B727000076
:1028A000B7270000B7270000B7270000B7270000B0
:1028B000B7270000B7270000B7270000B7270000A0
:1028C000B727000051290000B7270000B7270000F4
:1028D000B7270000B7270000B7270000B727000080
:1028E000B7270000B72700006B290000B7270000BA
:1028F00051290000512900006B2900006B290000BC
:102900006B290000FF2900005129000099290000CF
:10291000B7270000FF290000B72700009D2900000D
:10292000512900009D290000B7270000B7270000AB
:102930009D290000A927000051290000B7270000A9
:10294000B727000051290000B7270000A927000081
:1029500011F8012C6C2A23D111F8022C6C2A4FF0AB
:1029600000022DD00427B9461BE008F1070828F023
:1029700007080734F8E8022324F0070455B10EEBEA
:102980000400B04204D96FF01B000BB0BDE8F08F1B
:10299000C4E9002308340022082706E70022E1E703
:1029A0000022013C3C447842044025B1A9EB0500DB
:1029B0002044B042E7D8732B43D158F8040BCEE63D
:1029C0000827D0E74FF0000CDCE6009B0F2B3FF60A
:1029D000E3AE45B3DDF800E00AA8CBF3870370440B
:1029E000BCF1000F19D063F07F0300F8103C0AF12E
:1029F000010A009B013300930434C5F1080E11F85D
:102A0000013F002B7FF4CBAE601BB0F5806FBFF4AD
:102A1000C3AE9DBB083E3044B7E700F8103C029BB4
:102A200001330293E5E7BCF1000F01D00136E0E786
:102A3000CDE9041221F07AF90236DDE904120644E8
:102A4000D7E7B9F1040F08D108F1040015B1D8F89F
:102A50000030236004348046D1E7B9F1080F7FF4D9
:102A60009BAE08F1070323F0070303F108081DB12B
:102A7000D3E900BCC4E900BC0834C0E7029A2B606B
:102A8000800828706A7085F802A0BAF1000F05D09E
:102A900006A9C5F10100009A9A4207D1C5F10109C2
:102AA00039E000BFAC67020014D4020011F8012B1A
:102AB000170607D52718B74202F07F023FF663AF2B
:102AC00004F8012B0133E6E7019B06AA12F8038004
:102AD000BAF1000F02D018F0800F19D10FFA88F266
:102AE000002355F8221045F822300846029121F0C3
:102AF0001DF904EB0902471C3A44B2423FF643AFCA
:102B000004F8018B029920463A4621F065F93C44CD
:102B1000019B01330193DDE900239A42D4D1601B6C
:102B200033E76FF00D0030E707293FF60EAE2AE7D6
:102B30000B6801330B60014B1B68184760010020D4
:102B4000014B1860704700BF6001002007B50B46BD
:102B5000002102460191034801A900F075F903B074
:102B60005DF804FB312B000030B585B0CDE90101E3
:102B70000446002501A90548039500F065F9DDE943
:102B800002309842B8BF255405B030BD95110200FF
:102B90002DE9F84FB0F8189019F00808044693464C
:102BA0000DD001290CBF49F0100949F02009A0F807
:102BB00018908BF31188BFF36F8FBDE8F88F09F081
:102BC0000709022907D120461EF011FB0028F0D08A
:102BD0000128238B4ED16769218B002F15DA2568D8
:102BE00021F00701C4E9008841F00101218300269A
:102BF000218B01F0070ACA4502D0A368002B5AD1E5
:102C00000DB9002E71D0002356E001F007035A1FC2
:102C1000012A1ED821F00701062B256889B2C4E9D4
:102C200000880AD13DB1638B2A46126801339BB2FA
:102C3000002AFAD1638341F00201218320461EF06D
:102C4000D6FA06460028D3D0238B43F020032383F3
:102C5000CDE7042B0CD121F0070189B22183204656
:102C60001EF0C5FA05460028C1D041F0200121839D
:102C70000025BCE7032809D1226923F00703166861
:102C800043F00603238300252F46B1E7042806D12D
:102C9000226923F00703566843F00403F2E705288E
:102CA00006D1226923F00703966843F00503E9E79C
:102CB00000252E46E8E7012341F0080121838BF32C
:102CC0001188BFF36F8FFBB985BB16B11F49204632
:102CD000B0474FF02003EFF3118B83F31288BFF35B
:102CE0006F8F238B23F008032383238BDA0625D5EC
:102CF00023F0100323830121B4F8189009F0070989
:102D000000297FF45EAF54E7A1680029DCD0D1F838
:102D10000090D1F804B03B4652462046D847B9F15E
:102D2000000FD1D04946D9F80090F2E729463B463A
:102D3000524620462D681EF076FAC5E713F02001B2
:102D40001EBF23F0200323830221D5E75312020084
:102D50002DE9F843C368446905695F1E40F26C734E
:102D6000E1170135E41841F10001022D8CBF002369
:102D70000123E41A61F100010029804656DA6FF45C
:102D8000C77020184FF4C8724FF0000361F10001C2
:102D9000FDF774FD284B024603FB0044D8E9009080
:102DA000D8F808803C23C617C8FB0306022DB4469A
:102DB000A0FB03068CBF6FF0020E4FF0090E03FB61
:102DC0000C6610EB090C4FEA940340F26D1000FB07
:102DD00004333B444FF06400B4FBF0F405EB0E0009
:102DE000A3EB04034FF09905144C05FB00F000F130
:102DF00002004FF00505B0FBF5F00344A2FB04020E
:102E000046EBE9761B180E4804FB01210D4A41F1FF
:102E100000011818A0FB020361F1000102FB01315F
:102E200010EB0C0041EB0601BDE8F8834FF4C872CB
:102E300000232046ACE700BF70FEFFFFB13A02005E
:102E40009405F5FF805101002DE9F04F81469BB0BC
:102E50008A4615461C460026287810B9304600F0F0
:102E6000EEBD6B1C2528029306D05146C8470028AA
:102E7000C0F2E58501364CE2182200210CA820F0B2
:102E8000B6FF6B78252B7CD00022681C96469046B6
:102E900094461746014610F8013B2B2B00F0A0800A
:102EA00000F29780202B00F09E80232B00F09E8064
:102EB0002FB19DF8380040F004008DF83800BCF1C7
:102EC000000F05D09DF8380040F008008DF838005C
:102ED000B8F1000F05D09DF8380040F010008DF8D3
:102EE0003800BEF1000F05D09DF8380040F02000FA
:102EF0008DF838002AB19DF8382042F040028DF854
:102F000038209DF8382002F04400442803D16FF3A4
:102F100086128DF838209DF838202A2B42F0800246
:102F20008DF838207ED19DF8392042F001024B1CEB
:102F30008DF839201A782E2A9DF839200CBF0121EE
:102F4000002161F341028DF8392077D15A782A2A7D
:102F50006DD0013300214FF00A0C184610F8012BF8
:102F6000A2F13007092F40F2AB809DF83820109174
:102F7000C2F3400040EAD17161F341028DF838207C
:102F80005CE0AA1C02928DF83B309DF83930DF07D7
:102F900040F1738154F804BBBBF1000F07DA9DF8D0
:102FA000382042F004028DF83820CBF1000B58078E
:102FB00040F16C8154F8048BB8F1000F80F26B8102
:102FC0009DF839306FF341038DF839304FF0FF38F9
:102FD00061E12D2B0DD0302B7FF46AAF012259E730
:102FE0004FF0010C56E74FF0010853E74FF0010E88
:102FF00050E701274EE70CFB0272303A03461846B1
:1030000010F8017BA7F1300EBEF1090FF3D99942F8
:1030100090D09DF838100F92D20F62F341018DF8D5
:10302000381087E70B4600224FF00A0CE7E79DF8BF
:10303000392042F004028DF839200233194611F884
:10304000012B6C2A5CD040D8682A46D06A2A61D00D
:103050004C2A67D019460B4613F8012B0293782AA5
:103060008DF83B2000F2DF80572A68D8412A04D02F
:10307000A2F14503022B00F2D6809DF83A3002F00F
:10308000DF020421A2F1410861F30203D8F100023A
:103090009DF839108DF83A3042EB080262F3C711FF
:1030A0000A068DF83910CBB200F1E58003F0780202
:1030B000182A40F0B5806FF3C6038DF839309CE0D4
:1030C0000CFB01213039034647E7742A26D07A2ABF
:1030D000C0D19DF8393006220DE05A78682A9DF853
:1030E000392006D1012161F3C6028DF83920991CDF
:1030F000B1E71346022262F3C6038DF83930AAE71E
:103100005A786C2A9DF8392001D10421EBE7134647
:103110000322F0E79DF839300522ECE79DF83930BD
:103120000722E8E7BDF8383023F4F04323F0020328
:1031300043F4804343F00203ADF838308BE7A2F14B
:103140005803202B6FD801A151F823F0FF31000064
:10315000273200002732000027320000273200000B
:1031600027320000273200002732000027320000FB
:103170007B30000027320000FF310000D131000019
:103180007B3000007B3000007B30000027320000E5
:10319000D131000027320000273200002732000022
:1031A0002732000035320000FF31000059320000A4
:1031B0002732000027320000593200002732000079
:1031C000FF3100002732000027320000FF310000ED
:1031D0009DF83A30012161F302038DF83A309DF8F1
:1031E000393003F07803402B02BF9DF8381041F0CE
:1031F00001018DF83810632A05D0002306E09DF800
:103200003A300221E7E7003B18BF01239DF8382040
:10321000C2F340010B4363F341028DF83820B4E65A
:1032200013F0380FE9D09DF8383043F001038DF8E2
:103230003830E2E79DF83A30032262F302038DF85A
:103240003A309DF8393003F07803A3F1400CDCF1FB
:10325000000343EB0C03D9E79DF83A30032262F3F5
:1032600002038DF83A309DF8393013F0780F14BF0F
:1032700001230023CAE70123C8E79DF93820002A6B
:10328000B4BFDDF83CB04FF0FF3B90E699077FF507
:103290009DAEDDF840809DF839100023CDE90F3355
:1032A0009DF83A3003F00702042A09D18A0707D4AF
:1032B0009DF93920002AB4BF4FF00D084FF00608E1
:1032C00003F00703012BC1F3C30137D1CB1E042B3D
:1032D00021D8DFE803F003090920200054F8043B5B
:1032E000DA17CDE90C3206E0073424F00704F4E8DD
:1032F0000223CDE90C239DF83870BB0756D0029B02
:103300002A46514648461EF093FA0028C0F2978399
:103310000644029DA0E554F8043B01294FEAE372FC
:10332000CDE90C3205D19DF830300C9300230D937C
:10333000E1E70229DFD1BDF93030D1E7022B23D1FB
:10334000CB1E042B13D8DFE803F0030A0A12120085
:1033500022680C920023201D0D930446CBE7E01D4C
:1033600020F00700F0E80223CDE90C23F5E754F83C
:10337000043B0C9301294FF000030D93D3D0022995
:10338000B9D1BDF83030D0E7042B09D1E31D23F0CB
:10339000070303F10804D3E90023CDE90C23AAE7CE
:1033A000032B04BF54F8043B0C93A4E79DF83B2087
:1033B000782AAED8572A00F28C80252A00F0D480D3
:1033C000242AA6D9412A03D0A2F14503022BA0D872
:1033D000DDE90C13002BC0F2BE81380700F1BD817E
:1033E00017F0100718BF2027C3F30A55C3F31303C0
:1033F000CDE90813002D40F0B28151EA030014BF5B
:1034000001200020DB0243EA5153C902462A45EA63
:10341000010E43EAE57C08BF66225EEA0C0CCDE9AA
:10342000081300F00682002840F0CE81DDE9080193
:103430004FF0000C41F00041A5F2FE3509916346C2
:103440004FF0050E15F1020FC0F2C581BCF1000F5F
:1034500001D0CDE90801002DDDE9081000F3D0818D
:1034600009980899C5F1040C1C3500FA05F5ACF172
:10347000200E21FA0CF120FA0EFE294341EA0E013A
:1034800020FA0CF0CDE9081002F0DF01472940F0E6
:10349000D781DD1C02DB984580F2CE81023AB8F17B
:1034A000000FD2B201DD08F1FF389DF83810880610
:1034B00000F1C681B8F1000FD4BF00210121662AB6
:1034C000039140F0BF8118EB030540F1BD81002559
:1034D000BDE1A2F15803202B3FF61BAF01A050F82D
:1034E00023F000BFF936000013330000133300004F
:1034F00013330000133300001333000013330000B4
:103500001333000013330000D133000013330000E5
:103510009535000099360000D1330000D13300000A
:10352000D13300001333000099360000133300003C
:103530001333000013330000133300002F37000053
:10354000F9360000FD36000013330000133300008D
:103550006F35000013330000F9360000133300000C
:1035600013330000F9360000514610467EE4B8F1EE
:10357000000F0C9A09DB41461046039220F0DDFB58
:10358000039A0027151862B9C3E61046039220F08B
:10359000CDFBF5E70C9B8DF84C3000270DF14D0568
:1035A00013AAAB1A07B101339DF83A00C10640F1E6
:1035B0003A8202330F9940060B4444BF10995B18BE
:1035C000BBF1000F23DDABEB030B9DF8383059073F
:1035D000C3F380081BD4580640F13482002F00F05A
:1035E0003482514638460392C8470028C0F22782E9
:1035F000039A474601364FF030085E445B46002B85
:10360000A6EB0B000BF1FF3B00F31182064647B11E
:10361000514638460392C8470028C0F21082039AE8
:1036200001369DF83A30590640F165829DF93930EE
:10363000002BA6EB02030393C0F20A8217463878E8
:10364000039BA0F13002092AB84603EB070607F1F5
:10365000010740F229829DF83A200F9F930608D473
:103660003E44002FA6EB070307F1FF3700F3228249
:103670001E4698F800002E280BD15146C847002856
:10368000C0F2DD81002F06F1010600F31A8208F175
:103690000108A6EB08061DE23D072BD417F0100722
:1036A00018BF2027DDE90C23002B05DA524263EB1B
:1036B0004303CDE90C232D270DF1650300930EAADA
:1036C000DDE90C0113AB1EF06DF80246B8F1000FF6
:1036D0000DF16505FFF657AF9DF83810AB1A6FF383
:1036E000861198458DF838107FF64DAFA8EB03038F
:1036F0000F9348E72B27D5E70027DDE70C98002834
:1037000000F08D810DF1650300930EAA13AB00212B
:103710001EF048F8BDF83A3003F0EF0343F4F043ED
:1037200043F010030246ADF83A300027CEE70C9B79
:1037300007293FF6EEADDFE801F00C04060C08089F
:103740000C0C1E70E5E51E80E3E5F217C3E900628C
:10375000DFE51E60DDE52D2746E62B2744E640F237
:10376000FF7085422DD10B43A2F141021BD1192AD2
:1037700011D849238DF84C304E238DF84D30462317
:103780008DF84E309DF838306FF386138DF8383051
:103790000DF14F0504E769238DF84C306E238DF849
:1037A0004D306623ECE7192A99BF4E2341226E2340
:1037B000612294BF8DF84C308DF84C308DF84D203F
:1037C000DEE700201EE6013D49185B41002BFADAD6
:1037D000CDE908132AE6400840EAC1704908B1F172
:1037E000333FAC4605F10105F5D20EFB01F5A0FB18
:1037F0000E012944013B0CF102054FF0010C21E6BA
:10380000023140F10000CDE9081008A8CDE90323FA
:103810001DF099FF049B039ADDE90810013D013377
:1038200049184041002805F1FF35F9DACDE90810C3
:1038300011E600231D4613E6A8EB0308662234E6D2
:1038400000213CE608F10105102DA8BF102510212C
:10385000079100204FF00061CDE90A01DDE90A106F
:10386000A5B9089D4919099D40EB0505B5F1805F93
:103870001BD2CDE90815662A40F09980002B23DC85
:1038800030218DF84C100DF14D052FE0490841EA2B
:10389000C0714008CDE90A100AA8CDE90423013D12
:1038A0001DF051FFDDE90423D8E7490841EAC5715D
:1038B00008A86D08CDE90423CDE908151DF043FFE4
:1038C000059B049A0133D6E713AD079900290BDD58
:1038D00007A908A8CDE904231DF04DFF059B05F8B5
:1038E000010B013B049AF0D10F9300239DF838108F
:1038F000890602D4B8F1000F1DDD2E2105F8011B49
:103900009BB1B8F1000F16DD59424145A8BF4146B1
:103910009DF83A000F910029A8EB0108D4BF0021BF
:10392000012161F345108DF83A00B8F1000F02DD76
:103930000799002956DC0399002963D1CDF840800E
:1039400002F0DF01452921D1002B2946B8BF5B4297
:1039500001F8022BB4BF2D222B22632B6A7009DDE4
:103960006420B3FBF0F202F1300CE91C85F802C0D0
:1039700000FB12330A200D46B3FBF0F200FB1233BA
:1039800002F1300C303305F802CB4B700F9B002B4B
:1039900043DC109B002BD4BF002301239DF83A2069
:1039A00063F3861200238DF83A202B70F8E507A9FF
:1039B00008A8CDE904231DF0DEFEDDE904239DF80F
:1039C00038108DF84C00302818BF03F1FF338806FB
:1039D00002D4B8F1000F12DD2E218DF84D100DF13B
:1039E0004E05A2E707A908A8CDE904231DF0C3FEF0
:1039F00008F1FF38DDE9042305F8010B95E70DF127
:103A00004D0598E700211091284615F8011D302931
:103A1000FAD02E2918BF054692E70123BEE74B4D89
:103A200007466A1FBDE5010748BF0133C2E551469D
:103A300040460392C8470028039ABFF6DFAD1BB08B
:103A4000BDE8F08F4FF02008D7E54FF03008D4E5FF
:103A50009046039B4746434418F8010B70281ED13B
:103A60001E46109B03EB0608A8EB0603002B3BDC6D
:103A70002B463A46514648461DF0DAFE0028DEDB6A
:103A8000304406468344ABEB0603002B7FF741AC82
:103A900051462020C8470028D1DB0136F3E75146C4
:103AA000C8470028D5DACAE75146C8470028BFF6FC
:103AB000C6ADC4E751463020C8470028BFF6D1AD97
:103AC000BDE751463020C847013FD8E55146C847B9
:103AD0000028B4DB474606EB080318F8010BA0F1F9
:103AE0003002092AF2D9BBE751463020C8470028E6
:103AF000A5DB0136B8E7D80601D4190707D551462A
:103B000030200392C847002899DB039A01369DF8BC
:103B10003A30DB0608D59DF83B0003925146C84772
:103B200000288CDB039A01360F9F3744BB1B002B08
:103B300001DC2B469EE7514630200392C8470028FF
:103B4000FFF67DAF039A0136F0E700BF1F99020030
:103B500030B51049104889B0002222F080FC0F4D8A
:103B60000F4900220023CDE9062300240E23CDE9CE
:103B70000334CDE901440B4B00944FF440722846C6
:103B80001BF0B6FF084928461BF0FAFE204609B094
:103B900030BD00BFAD3B0000E00F0020181000203A
:103BA000903E0020013E0000AF9C020001481CF046
:103BB00039B900BF780A002070B5124BBFF35B8F94
:103BC00053E8005F6A1C43E800210029F8D1BFF3E5
:103BD0005B8F2DB90C4C0D4E361B3611B54200DBF8
:103BE00070BD237B53B123689B690BB12046984776
:103BF000636804221968204600F038FA0135103451
:103C0000ECE700BF901E0020E06B0200006C020099
:103C100010B5044C237813B903481CF003F90123B1
:103C2000237010BD23390020780A00200C4BBFF30D
:103C30005B8F53E8002F013243E800210029F8D1BF
:103C4000BFF35B8F58B1BFF35B8F064B53E8002F78
:103C5000013A43E800210029F8D1BFF35B8F704798
:103C60008C1E0020881E00200020064BBFF35B8FB7
:103C7000024653E8000F43E800210029F9D1BFF3C1
:103C80005B8F70478C1E0020F8B5FFF7EDFF0A4CE4
:103C90000A4D2D1B07462D110026AE4200DBF8BD54
:103CA00063685B792BB123681B6913B139462046E1
:103CB000984701361034F0E7E06B0200006C020018
:103CC000014902481DF031BF18700200941E002007
:103CD000094A08B500231370084A1360084B094AC3
:103CE0001A604FF4004000F0D1FBFFF7E9FFBDE898
:103CF000084000F025B900BF243900208C1E0020A8
:103D00006401002031200200014600220148002306
:103D10001DF02ABF941E002001481DF0B8BF00BF4F
:103D2000941E0020014601481DF0FDBF941E002096
:103D300001481EF02CB800BF941E00202A4B1B78AF
:103D40002DE9F04706460BB900284BD01EF077F955
:103D5000054618B16EB12846FFF7E4FF2EB9234B94
:103D60001B68002B01DDFFF78FFFBDE8F047FFF771
:103D7000DFBF1F4BBFF35B8F53E8002F013A43E8CF
:103D800000210029F8D1BFF35B8F1A4C1A4FDFF8DE
:103D90006CA03F1B3F11B046B845DCDA63685B7925
:103DA000CBB129784B0711D4B5F800906A68C9F3F4
:103DB0008219C1F3C20192B1A2EB0A0242F38F024F
:103DC0000123204600F068F9484504D323682946BA
:103DD0001B682046984708F101081034DCE74FF0D3
:103DE000FF32EDE7BDE8F087233900208C1E00206C
:103DF000881E0020E06B0200006C0200E00800203A
:103E000010B5FFF7D9FE1CF00BFD0C4B186030B15C
:103E10000B4B1B68092B02DD0A481CF003F8094C08
:103E20000020FFF78BFF0028FAD14FF0FF324FF050
:103E3000FF3320461CF01CF8F2E700BFD01E002024
:103E4000881E0020780A002013B51D4BBFF35B8F3E
:103E500053E8002F511C43E800100028F8D1BFF3AD
:103E60005B8F184B1B7883B14FF02003EFF3118465
:103E700083F31288BFF36F8F0020FFF75FFF84F397
:103E80001188BFF36F8F02B010BD0F4B1B68002B62
:103E9000F9D052B900220023CDE900230B484FF49A
:103EA000004200231CF0D4FEEDE70A2AEBD10748BC
:103EB00022F0E1FA064802B0BDE810401BF0B2BFA4
:103EC000881E002024390020D01E0020E00F002092
:103ED000780A0020064B10B51B6804469847214617
:103EE000A06004481DF0B6FEBDE81040FFF7ACBF6F
:103EF00064010020941E0020F8B50E4F3D7875B97E
:103F00000D4C0E4EFFF758FE361B3611B54207DB3F
:103F10000020FFF713FF0028FAD101233B70F8BD02
:103F200063685B791BB1236820465B69984701355C
:103F30001034EBE724390020E06B0200006C020033
:103F40000B480C4B30B51B1A0B4CDB08002104301E
:103F5000994200D130BD10F83120256802F00702E7
:103F600025F007052A4344F8042B0131F0E700BF90
:103F7000506A0200E06B0200E0080020044A054B92
:103F80009B1AB1EBD30F34BF52F8310000207047B9
:103F9000506A0200E06B02002DE9F04789461646A0
:103FA00098460446B8B9DFF884A0214FA7EB0A076A
:103FB0003F110546BC4202DB2846BDE8F0870AEB0C
:103FC0000410434632464946FFF7E6FF854238BFB4
:103FD00005460134EEE7174B174C03EBC2031D797E
:103FE00043681A79072302EB420203FA02F14545BE
:103FF00054F8263028BF454623EA010305F007019F
:1040000001FA02F213430021032223FA02F000F026
:104010000700814202F1030238BF01461E2AF4D193
:1040200023F007030B4344F82630C5E7E06B02009A
:10403000006C0200506A0200E0080020F8B5094C4C
:10404000094BE41A06460F46E4080025A54200D1B4
:10405000F8BD00212AB23B463046FFF79DFF0135EF
:10406000F4E700BFE06B0200506A0200094BC31A7C
:1040700070B51B114668044601330D463371114675
:10408000FFF7DCFF636801221D605A71BDE87040D4
:10409000FFF7BEBDE06B020063B1002A0FDB43688F
:1040A0000849187900EB400351F82200D84000F08D
:1040B00007007047044B03EBC202107970470420DD
:1040C000704700BFE0080020506A0200024B986869
:1040D0009B69C01A704700BFD41E0020014B98692D
:1040E000704700BFD41E00200EB403B503AB0146D9
:1040F00053F8042B04480193FEF7A6FE02B05DF8C6
:1041000004EB03B0704700BF892002002DE9F0479F
:104110001D46089B1746DA0604460E4605D4990646
:104120004CBF2A492A49FFF7DFFFDFF8A8904FF07C
:104130000008A8452ADBDFF8A080DFF8A090DFF8B0
:1041400094A00025BD422FD2725D49462046FFF75C
:10415000CBFF0135102D20D12149DFF87880DFF821
:1041600084902046FFF7C0FF0025AF4228D9725D3A
:10417000A2F120035F2B28BF2E2249462046FFF7DD
:10418000B3FF0135102D14D1BDE8F0874946204614
:10419000FFF7AAFF08F10108CBE76A07D2D1514621
:1041A0002046FFF7A1FFCDE741462046FFF79CFFE1
:1041B000CFE76B07D9D141462046FFF795FFD4E7FB
:1041C00041462046FFF790FFDBE700BFDA9E020082
:1041D0004C9A0200269902002499020031930200B1
:1041E00028990200FEA502002DE9F04F87B01C4679
:1041F00001F0010305929DF84090BDF948A0049399
:104200000746884601F0020B01F008061DF01BFF6F
:104210000246002844D03A493846FFF765FF054674
:10422000BBF1000F08D018F0440F3BD135492246AE
:104230003846FFF759FF0544049B53B1324B3349CD
:1042400053F82920324B3846002A08BF1A46FFF798
:104250004BFF3EB12F4B304953F829203846FFF72A
:1042600043FF0646BAF1000F16DB059B002B45D035
:10427000012303FA09F9294B294C19F0100F18BF33
:104280001C4651469DF84400FFF778FE2146024641
:104290003846FFF729FF0644701907B0BDE8F08FD4
:1042A0000546BDE71F4B18680028C4D01E4B4FF4CD
:1042B0007A781B68B4FBF3F44FF46161B4FBF0F35C
:1042C00000FB134408FB04F44FF03C0CB3FBF1F289
:1042D00001FB1231B4FBF0FEB1FBFCF300FB1E440A
:1042E0000CFB131108FB04F40091B4FBF0F00F4930
:1042F000CDE901E03846FFF7F7FE9CE7084CC0E740
:10430000389902003C9902002C700200F19F0200D3
:104310002A9902004070020061990200349902005B
:104320002F990200F01E0020F41E00204599020083
:1043300038B50C46E107054603D5084A0849FFF79A
:10434000D3FEE20608D4A30628464CBF0549064919
:10435000BDE83840FFF7C8BE38BD00BF2A9902004B
:10436000F19F0200DA9E02004C9A02002DE9FF47FD
:104370000B8813F4E07F06460C469046C3F382197F
:104380004DD00A784B68C2F3C202002B44D02549B5
:104390005B1A43F38F03CDE90123CDF80090A368A6
:1043A000002241463046FFF71FFF8246254655F85A
:1043B0000C3BC3F3492353B11B4F1C481C492B46EC
:1043C0003246B9F1000F08BF38461CF0E0FD67889F
:1043D000C7F3CB0797B12368C3F349231D44102FBC
:1043E0003C4628BF10242946CDF80080534622467B
:1043F0003046FFF78BFE3F1B2544F0D1B9F1000F8B
:1044000004D04A4641463046FFF792FF304604B09A
:10441000BDE8F0471DF02BBE4FF0FF33BBE7CA46A7
:10442000C4E700BFE0080020BF200200892002008E
:10443000492E000073B542F20F738B4228BF0B4622
:1044400005680F4A0446052168461CF0C3FE6368F0
:104450000C495B6806460B2228461DF0FBFD63688D
:104460003246694628465B681DF0F4FD63680649DC
:104470005B681B2228461DF0EDFD02B070BD00BF39
:1044800063B10200A399020087990200084A10B59F
:104490000123084C13600021A04204D801B113602D
:1044A000054B186010BD40085B000121F4E700BF18
:1044B000F41E002040420F00F01E00202DE9F04FB6
:1044C00085B0DDE90E6BDDF840A005468846144650
:1044D0009946BBF1000F37D00022CDF800A05B4613
:1044E0000C211046CDF80CA0FEF718F9074604F091
:1044F000070206F1130005F00704144D144BE40005
:10450000384444EA821405EA472520F007002C438A
:1045100003EAC64380081C43FFF7F6FB054650B18B
:10452000BBF1000F07D0CDF800A05B460022394652
:104530000C30FEF7F3F84B4622464146284605B0BC
:10454000BDE8F04F1DF0C8BD5F46D0E700FE070094
:104550000000F87F00230428CB604B6098BF044B19
:10456000044A98BF53F820308A600B60704700BF40
:1045700094700200707002000023084A0B60CB6048
:104580004B608A60064B074AD21AB0EB221F3EBF2F
:1045900003EB00139B680B60704700BFE8710200DB
:1045A000E06B0200006C020038B50446FFF78EFD98
:1045B0000546FFF793FD094A0346082120461DF0F2
:1045C000BAFF2B462046064A08211DF0B4FF2046BC
:1045D000044A08211DF0AFFF002038BDAF9902004A
:1045E000C0990200D19902002DE9F347114B124CFA
:1045F000DFF84880DFF84890DFF848A01B1B07462B
:104600001E110025B54203DB002002B0BDE8F08793
:10461000636859791B79002914BF42464A46CDE99F
:1046200000230821A368524638461DF084FF013557
:104630001034E7E7006C0200E06B02001D9A0200F4
:10464000259A02002E9A02002DE9F04F244B254CAA
:10465000E41A4B685B7985B005460E46E4081BB941
:10466000214A03211DF067FF204B214ADFF884A077
:10467000DFF884B0082128461DF05DFF1F4A08219D
:1046800028461DF058FF4FF000080FFA88F7A742A0
:1046900008F1010803D3002005B0BDE8F08F3A46C9
:1046A000012300213046FFF7F7FC00233A46194664
:1046B00081463046FFF7F0FC394603900020FFF7B3
:1046C0005DFC039A5AF8222001925AF829200092A0
:1046D00003465A46082128461DF02DFFD5E700BFA6
:1046E000506A0200E06B02004F9A0200619A0200D9
:1046F0006D9A020080700200C89A02008B9A020034
:1047000010B50023054ACB600C464B608A60014619
:104710001846FFF733FC206010BD00BF7070020028
:104720002DE9F04F52F804AC184C85B006465046BF
:104730008946904602931FF0F9FA1549091B0B119F
:10474000024601930027A346019B9F4208DB114AC2
:104750005346012130461DF0EEFE6FF007050FE0D5
:10476000A168039250461FF0FDFA1034039A0546E3
:1047700050B9029C43464A460BEB07113046A0470E
:10478000284605B0BDE8F08F0137DDE7E06B020099
:10479000006C0200DC9A020008B5024BFFF7C0FF74
:1047A000002008BD49460000014BFFF7B9BF00BF1C
:1047B0004F210200014BFFF7B3BF00BF572102009A
:1047C000014BFFF7ADBF00BFC9480000014BFFF729
:1047D000A7BF00BFA321020010B5C369DB681C7925
:1047E0002CB9044A01211DF0A6FE204610BD01206F
:1047F000FCE700BFF19A02002DE9F04F2C4E1F4656
:104800002C4BF61A151E85B04FEAD60614BF2B4660
:10481000334602934B685B79804689461BB9264A2A
:1048200003211DF088FEDFF894A00024029B9C4227
:1048300002DB05B0BDE8F08FBDB357F824B000230C
:104840009E4207D157F824301D4A012140461DF0F1
:1048500072FE23E0194600200393FFF78FFB4022EE
:1048600059461FF07FFA039BD0B91A4600210E9BD0
:1048700012B24846FFF790FB0E9B834283460DD051
:1048800085B921462846FFF779FB03465AF82B20C5
:10489000009203210B4A40461DF04DFE0134C5E74E
:1048A0000133CDE757F82430F0E72246DEE700BFBA
:1048B000E06B0200506A0200159B0200807002004B
:1048C000409B02002A9B02002DE9F74FD3F804B069
:1048D000DFF84CA00646884691461D4600275AF848
:1048E000041B042258461FF03DFA044670B10137FC
:1048F000052FF4D16B680B4A012130461DF01BFED9
:104900006FF00704204603B0BDE8F08F009705F173
:104910000803A9F1020241463046FFF76DFFF1E7B7
:10492000807002005A9B0200014B01221A707047EE
:1049300035390020024B034801221A701DF097BB45
:1049400036390020147202000148FFF773BD00BF22
:104950001472020001480F22FFF708BD1472020012
:10496000054B1B781BB141F2883021F049BDA420D2
:1049700000211BF03BBF00BF363900202DE9F04776
:10498000DFF88C90DFF88CA080460F46042499F85D
:104990000050CDB94FF0FF334FF0FF3250461BF0BF
:1049A00051F93A46414628461AF006FD0646504659
:1049B0001BF0C0F9184DFEB101232B7099F800309F
:1049C0006BB93846BDE8F0873A46414600201AF0F8
:1049D000F3FC0646EEE75CB92C704FF0FF34002084
:1049E0001AF036FD0028ECD02B78002BF3D1E8E745
:1049F000013CFFF7B5FFF2E72B7813B1013C04D17E
:104A00002C702B78002BC2D1DBE7FFF7A9FFF8E76A
:104A100036390020340A00203539002013B5044609
:104A200021F0BDF9C0F307230193C0F307430093BE
:104A3000044A030E082120461DF07DFD002002B02F
:104A400010BD00BF479D020010B5044621F0D6FC02
:104A50004FF47A73A0FB032003FB0103D20B42EA5D
:104A600043432046024A08211DF065FD002010BD89
:104A7000609D020010B5044619F060FC084A034628
:104A8000082120461DF057FD064A204608211DF04A
:104A900052FD054821461AF035FF002010BD00BF29
:104AA0006F9D02008E9D0200094B000030B501464B
:104AB00087B0044611481AF025FF114A002312F866
:104AC000011BAA2903D10133B3F5006FF7D1C3F558
:104AD000006164224A43D20A059200254FF4006225
:104AE000CDE90312CDE901232046054B054A009587
:104AF00008211DF020FD284607B030BD394C0000CC
:104B000058580020989D0200F0B593B0D0F8B070CE
:104B100004460D4621F0F8F806461BF081FE354BA1
:104B2000354A002E08BF1E46344BCDE9004684426C
:104B300018BF13460821324A28461DF0FCFCD4E970
:104B40000A23CDE9022394F90E302E4A009308215E
:104B5000237B28461DF0EFFC20461AF021FF626FF0
:104B600000920346284A082128461DF0E4FC06A9C5
:104B7000204621F0DDF806460CA821F0E3F856EABD
:104B800000031FD1069EDDF81CE06421A6FB010C8A
:104B9000DDE90C2301FB0EC1FBF7C0FE1B4A0090B0
:104BA0003346082128461DF0C6FC05A9204621F001
:104BB000AFF8034660B1164A082128461DF0BBFC39
:104BC00013B0F0BD134A082128461DF0B4FCECE7F1
:104BD000059A6423B91ACDE900214B430E4AB3FB71
:104BE000F7F30821CDE9027328463B461DF0A3FCEC
:104BF000E6E700BFDE9D020026990200DCAE02005F
:104C0000E19D0200ED9D0200199E0200309E02000F
:104C1000789E0200559E0200A59E020010B5044633
:104C200020F0C4FE034A0346082120461DF083FC01
:104C3000002010BDDC9E0200F0B5D0F8B06089B055
:104C400004460D4607A921F063F8034630B1104A27
:104C5000082128461DF06FFC09B0F0BD204621F068
:104C600053F807990B4A771A002818BF02466423A5
:104C7000CDE90217CDE900267B43074AB3FBF6F3E3
:104C80000821CDE90463284623461DF054FCE3E7E0
:104C9000789E0200DE9D0200F29E0200034600683C
:104CA00010B50C46114608B1027822B9024A2046D6
:104CB00002F014FF204610BDC19F020010B50C6821
:104CC000D1E90112FFF7EAFF034A03460821204613
:104CD0001DF031FC002010BDC69F02002DE9F047F9
:104CE0008AB0054601A81AF00BFC019E1B4ADFF8AA
:104CF0007080DFF87090DFF870A0182303FB006667
:104D0000082128461DF017FC019CB44203D3002063
:104D10000AB0BDE8F08705AF394614222046FFF7F8
:104D2000BDFF42460346082128461DF004FC2046EC
:104D300020F01AFF0D4A002814BF4B4653460821A5
:104D400028461DF0F8FB142320460949049302AAC3
:104D5000CDE90257183420F011FFD6E7E59F020095
:104D6000EF9F0200D69F0200DC9F020075CF020079
:104D7000BD4C00002DE9F043114BDFF8489053F88B
:104D80002140013187B053F8218006460027A04515
:104D900003D8384607B0BDE8F083204620F0E4FE93
:104DA000054658B1142201A92046FFF777FF4A466D
:104DB0000346082130461DF0BEFB2F461834E6E7B7
:104DC00030730200F49F020010B5082104461E4A09
:104DD0001DF0B1FB00212046FFF7CCFF20B91B4A94
:104DE000082120461DF0A7FB08212046184A1DF087
:104DF000A2FB01212046FFF7BDFF20B9134A08217D
:104E000020461DF098FB08212046124A1DF093FB16
:104E100002212046FFF7AEFF20B90C4A08212046A8
:104E20001DF089FB082120460B4A1DF084FB03215D
:104E30002046FFF79FFF20B9044A082120461DF0B5
:104E40007AFB002010BD00BFFA9F020009A00200FB
:104E500011A0020020A002002EA002007FB50A6867
:104E60004B6904924A6803928A680292CA68019266
:104E70000A690132009203F26C73034A08211DF0A3
:104E80005AFB07B05DF804FB8BA00200F7B513785E
:104E90003A2B06460F46154616D1541C23783A2B5A
:104EA0002ED1013400230A2201A9204601931EF0CD
:104EB0008DFD019A3860A242034610D0107870B977
:104EC0003C2B0ED9184A14E000230A2201A92846D7
:104ED00001931EF07BFD019CB860AC4203D16FF0E2
:104EE000150003B0F0BD23783A2BF8D1172805D967
:104EF0000E4A012130461DF01EFBF0E70134CDE7DC
:104F000000230A2201A9204601931EF05FFD019AA9
:104F10007860A242E3D013783A2BE0D13B2801D944
:104F2000034AE6E7541CBDE7CAA00200ACA0020099
:104F3000BAA002002DE9F043044691B00D46174691
:104F4000012002A9FBF758FE07A902A802F0F6FD0E
:104F5000032D5FD17D684FF000090A2201A9284680
:104F6000CDF804901EF032FD019EB542804618D067
:104F700032782D2A15D101360A2201A93046CDF802
:104F800004901EF023FD019B9E420AD01A782D2A20
:104F900007D1451E0B2D0DD92A4A012120461DF0AF
:104FA000CAFA20461DF0ECFA6FF01505284611B03C
:104FB000BDE8F0835E1C0A2201A93046CDF80490BA
:104FC0001EF004FD019B9E42EBD01B78002BE8D124
:104FD000431E1E2B01D91C4ADFE7A8F26C73CDE9F2
:104FE0000B53BA680A9007A92046FFF74FFF002825
:104FF000D7D107A81CF0D5F9B1F1FF3F08BFB0F138
:10500000FF3FCDE9020109D1104A012120461DF0E0
:1050100092FAC9E7022DC4D17A68E4E7002302A915
:1050200001200493FBF754FE054630B10346084ABD
:10503000012120461DF07FFAB6E707A92046FFF7B9
:105040000DFFB3E7DAA00200E9A00200F6A002001B
:105050001FA102008B1E022B2DE9F0410746884656
:10506000144633D86068102200211EF023FDB8F1E9
:10507000020F06461ED0A0680A2200211EF01AFD6B
:10508000C5B2214A2B46082138461DF054FAB8F122
:10509000040F1ED0102D0FD0202D10D0082D10D1B0
:1050A0003378DBB2194A082138461DF044FA002053
:1050B000BDE8F0812025E4E733889BB2F2E733684E
:1050C000F0E7134A082138461DF035FA6FF0150055
:1050D000EEE7E068102200211EF0ECFC0D4A0346CA
:1050E0000446082138461DF026FA102D06D0202D42
:1050F00007D0082DE5D1E4B23470D8E7A4B23480EB
:10510000D5E73460D3E700BF5FA102008AA10200A7
:1051100074A102009BA1020070B50E4E04463378C4
:105120000D4631B12BB1BDE870400B4A01211DF095
:1051300002BA83F00103337033B1084A08212046D4
:105140001DF0F9F90123337029462046BDE870406F
:105150001DF02BBA39390020AFA10200EAA10200EC
:1051600070B504463C480378182B02D10B78112BFC
:1051700031D0013A0B4655189D4225D18B5C0A78F7
:105180000370A2F13003092B344C04D922F0200320
:10519000413B052B04D823683149CA5401332360AD
:1051A0002368022B34D110222D4800211EF082FCEE
:1051B0002C4A136803F8010B13602B4A1368013360
:1051C00013600023236023E013F8016B182ED3D162
:1051D0001E78112ED0D1244D244A2B680821204658
:1051E0001DF0A9F920460021FFF796FF204B187803
:1051F00070B9204A2B681168042B0ADC08B11160D1
:105200002B6013F003010BD1126813681BBA1360F3
:1052100070BD086800BA41F8040B043B0120EBE7BD
:105220005B4203F0030358BF5942022904D11268BC
:1052300013885BBA9BB2EAE70329E9D110680268D8
:105240001104C2F3074301F47F010B4302F47F42D0
:1052500013430360DCE700BF3B390020101F002030
:10526000373900200C1F0020181F002014A2020054
:105270003A390020141F00202DE9F74F0D462D4923
:10528000DFF8B480DFF8B490DFF8B4B000230B602F
:105290002C4988F8003006460B601446012D27463D
:1052A00054F8043F21D918460222494601931EF0C2
:1052B00059FD019B88B922689278003A18BF0122F3
:1052C00003EB020A2049022250461EF04BFD30B982
:1052D000012388F80030013DE0E70022F0E749466D
:1052E00050461EF033FDB0B90437002211467868ED
:1052F0001EF06CFB154B00221146186078681EF0FA
:1053000065FB134B134918603046FFF705FF00207B
:1053100003B0BDE8F08F9AF800202D2AE5D19AF865
:105320000120002AE1D053465A46082130461DF09C
:1053300002F9D0E7101F00203A3900202EA2020007
:1053400034A20200181F002031A202000C1F00200E
:10535000141F00206151000007B50A4820F004FC2A
:1053600060B1094A074912680848042300930123E1
:1053700000F0F8FD002003B05DF804FB6FF01200B0
:10538000F9E700BF7C68020024740200006C020090
:1053900070B546680C463168B0688B600025C1E97D
:1053A00000420822C0E90055294610441EF01FFDA6
:1053B000F0680822C0E90055294610441EF017FD88
:1053C0003368DD60A3682BB19B6C1BB10549324685
:1053D00020469847A3689B6A0BB120469847002057
:1053E00070BD00BFE95300002DE9F047054688B0C5
:1053F0000E4683685B6C03B19847AB685B6B4BBB35
:10540000DFF8F090DFF8F0A04FF00008F068694690
:1054100002691CF026FA0746002832D0AB680099D2
:105420009B695BB30246284698470446002CF06807
:10543000214618BF4FF001081CF040FA0CB1A742FA
:10544000E4D0B8F1000F09D033680020D3E901217E
:10545000904703E0284698470028D1D1AB685B6AA3
:1054600063BBB06802A902691CF063FA044660BB22
:1054700028461CF006FF3368DC6031E06FF057040B
:10548000D4E7D9F8003013F0060F0BD00223CDF883
:1054900018A0019305934FF48451034605AA48468A
:1054A0001CF035FEAB689B692BB1012202A928468E
:1054B00098470446C2E76FF05704BFE7284698476D
:1054C0000028CED108B0BDE8F087AB6802995B69CF
:1054D00063B10246284698470146B0681CF054FA6A
:1054E00033680120D3E901219047EBE76FF05701C2
:1054F000F3E700BF9C090020D1A2020000487047DA
:10550000006C020010B581680446083101F0BAF859
:10551000A168034A20460831BDE8104001F05AB89E
:1055200013A3020001491CF042BF00BFDA9E020033
:1055300037B504468068D0F864325A070D4605D561
:1055400000211CF075FFE0681DF0A6FEE368DB6833
:105550006BB9002D37D0A06842301CF022FFA36841
:1055600098B303F1420103F5A1701EF0B5FBA268E8
:10557000E0680DF10603423229461DF090FE58B94D
:10558000A06800F5A17142301EF0A6FBA068423071
:105590001CF007FFADF8060020461DF00BFBA368CA
:1055A000D3F860329B0603D5094960691CF0FFFE01
:1055B000204600F0DFFEA368BDF80620DA879A8750
:1055C00020461DF064FA03B030BD83F84201CEE7F7
:1055D0005A6D02002DE9F04F00239FB0CDE905334D
:1055E00083680446423303931DF0EAFA20461DF017
:1055F0003AFA10B96069FFF795FFA06814220021FC
:1056000008301EF0F4FB20461DF0A6F9A168E06802
:105610008A8F423100261DF079FE20461DF0FCFEE7
:105620004FF0FF38B146B24611AF02963546B34649
:10563000DDE90532012A00F0D6800B2B40F2AE8066
:10564000069B022B40F0AE80894B8A4A012114E070
:10565000039A0223394606A81DF012F806997A68C3
:105660000392034629B96FF0070528461FB0BDE82D
:10567000F08F012905D120B17F4A20461DF04CFB57
:10568000F1E7059B4BB3386801F020F898B166B19B
:10569000A5680D9608350CAE0FCE0FC533682B608C
:1056A0002046FFF72FFF0125DFE7744A012120463E
:1056B0001DF032FBD7E7059B7BB13A6829462046AF
:1056C00001F068F9022800F08E80032805D0059BC0
:1056D0000133059301230293AAE7BAF1000F05D124
:1056E000396807AA58461DF0B6F80546043708F190
:1056F000FF38002D40D0029AEB6842B113B3204628
:105700001DF05EFA20461DF0C2F95D4ACEE7CBB12E
:10571000A368DDF81490AE4603F1080CBEE80F0054
:10572000ACE80F00DEF80030CCF80030AB684BB9C5
:105730006B7CFE2B01BF95F8108009F1010308F185
:10574000FF380593D5F804C0BCF1000F08D0AE4671
:10575000BEE80F000CAE0FC6DEF8003033606646C0
:10576000AB46B8F1000F03D1069B022B7FF460AF6C
:10577000059B013305935BE7059B63B9A368DB6970
:105780000BB1DB683BB93F4B00933F4A119B0121B2
:1057900020461DF0C1FA4FF0010AE2E7B8F1000F10
:1057A0007FF456AF029B4BB120461DF056FEA26817
:1057B0000C23423211A905A81CF062FF059DA068C8
:1057C0001EAB03EB8503002243F8342C436973B905
:1057D000002E3FF448AFC368B3423FF461AF0D966B
:1057E00000F1080557E7059B0B2BDBD928E7037E63
:1057F000A5EB0905B3B1417E4FF6FF72FF2918BF33
:105800000A469D4202D313449D420BD983681F4A26
:10581000012120461DF080FA2046FFF773FE6FF04D
:10582000150522E74FF4006100F519701CF085FDA5
:10583000A06800F53E701CF014FEA36811AA29466A
:1058400002EB89025B69204698470546A0684FF045
:10585000FF324FF0FF3300F53E701CF0B5FDA0683D
:105860006FF4006100F519701CF076FDFDE600BFD5
:1058700096A30200F69F020021A3020035A30200B6
:1058800053A3020082A3020045A60200BAA30200AD
:105890008368022210B51A719A6B0446BAB983F86C
:1058A0004220DA63D3F86432DB040BD50321084BC2
:1058B000084A1DF031FAA0686FF4805100F51970A4
:1058C0001CF04AFD2046BDE8104000F065BE10BD4A
:1058D000D5A30200F19F02002DE9F04F0446806835
:1058E000ABB0012100F519701CF027FDA3681B79EE
:1058F000022B17D100230B93A36860689E6B03688B
:105900001D690BABC6B110221DA9A8470B9A4AB15D
:105910001DA92046B047A3689B6B002BECD1204605
:10592000FFF7B6FFA0686FF0010100F519702BB00A
:10593000BDE8F04F1CF010BD01220DF12B01A8476E
:105940000B9B002BEED09DF92B209DF82B30A068EF
:10595000002AD1DB4279032A00F2FD82DFE812F04F
:10596000040075029802FB020D2B1AD00A2B18D0E6
:10597000B0F864226FF3CA02A0F86422092B4CD05D
:1059800032D8002BB8D0082B00F0C481A3F120023C
:105990005E2A00F2CB8101211CF04AFD9DF82B10FC
:1059A000E8E0D0F86422C2F3C7022AB1D0F864223A
:1059B000C2F3C7029342E1D1B0F86422818F63F34E
:1059C000CA02A0F8642259B91CF032FDE0681DF04B
:1059D00063FC6069FFF7A6FD2046FFF759FF8BE7E0
:1059E0002046FFF7F7FDF7E71B2B13D07F2BCDD118
:1059F000D0F860329A077FF57FAF01211CF018FDC7
:105A0000A368D3F860321B0700F18C8120461DF09B
:105A1000C3F971E7012343716EE7D0F860329E0746
:105A20007FF56AAF01211CF003FDA068838FFF2B77
:105A30003FF462AFC28F00F1420100F5A1701EF089
:105A4000CBF9A268D38F1344002583F842511DA9D6
:105A50000C2302F5A1720DA81CF012FE0D990C2961
:105A60003FF64AAF2AAB03EB810343F8345CA368EB
:105A7000DA8F134493F84130202B00F06E82093BFB
:105A8000042B40F26A8201294FD800250C950C9B0B
:105A90002AAA02EB8303002653F834AC50461CF0CC
:105AA00080FCB04681460496374618AA39462846F7
:105AB00000F0FCFB8346002844D1012E63D10C9BEF
:105AC0002AAA02EB830353F8340C1CF06AFCA26888
:105AD000064608324146284600F0E8FB05460068C5
