:10000000408200201D8A0000F1B40300F189000045
:10001000F1890000F1890000F18900000000000072
:100020000000000000000000000000006D840000DF
:10003000F18900000000000015840000F189000033
:100040002185000001F002002185000021850000CB
:100050002185000021850000218500002185000008
:1000600021850000218500002185000021850000F8
:1000700021850000218500002185000021850000E8
:1000800021850000218500002185000021850000D8
:1000900021850000218500002185000021850000C8
:1000A00021850000218500002185000021850000B8
:1000B00021850000218500002185000021850000A8
:1000C0002185000021850000218500002185000098
:0C00D00021850000218500002185000032
:0400DC00FFFFFFFF24
:1000E00053B94AB9002908BF00281CBF4FF0FF319F
:1000F0004FF0FF3000F00CB8ADF1080C6DE904CE04
:1001000000F01BF8DDF804E0DDE9022304B07047DD
:10011000704700BF430803F05533C01A00F0333373
:10012000800800F03330184400EB10104FF001331A
:1001300000F00F305843000E70472DE9F04F07468E
:100140008C460846099E15463C461946002B40F051
:10015000C6808242B2FA82F746D94FB1C7F1200E6B
:1001600024FA0EFE00FA07F3BD404EEA030CBC4031
:100170004FEA15481FFA85FEBCFBF8F9220C08FB74
:1001800019C309FB0EFA42EA03439A4528D9EB1832
:1001900009F1FF3004D29A4502D9A9F102002B449B
:1001A000A3EB0A03A4B2B3FBF8F208FB123302FB81
:1001B0000EFE44EA0344A64514D92C1902F1FF337C
:1001C00003D2A64501D9931E2C44A4EB0E0443EAA6
:1001D00000401EB1FC40002334607360BDE8F08F26
:1001E0004846DDE71346F0E702B9FFDE87BB831A16
:1001F00001214FEA154EAAB2B3FBFEFC200C0EFB08
:100200001C330CFB02F840EA0343984563D9EB1812
:100210000CF1FF3004D2984502D9ACF102002B4416
:10022000A3EB0803A4B2B3FBFEFC0EFB1C330CFBD8
:1002300002F244EA0344A2424FD92C190CF1FF33D5
:1002400004D2A24202D9ACF102032C44A41ABEE7A4
:10025000C7F1200C20FA0CF800FA07F324FA0CFC82
:10026000BD404CEA03024FEA154EABB2B8FBFEFCB0
:10027000110C0EFB1C800CFB03F941EA0040814588
:1002800004FA07F423D928180CF1FF3104D2814570
:1002900002D9ACF102012844A0EB090092B2B0FBF4
:1002A000FEFC0EFB1C000CFB03F842EA00439845E1
:1002B0000FD9EB180CF1FF3204D2984502D9ACF1FA
:1002C00002022B44A3EB080342EA014191E7614695
:1002D000E2E76246F6E76046A2E76346B6E7834296
:1002E00005D90EB1C6E900700021084676E7B3FAD9
:1002F00083F181B9834201D3BA420AD8BC1A60EBB8
:10030000030301209C46002E68D0C6E9004C002162
:1003100064E70846F7E7C1F1200C8B4022FA0CF4A1
:100320001C4302FA01F500FA01F327FA0CF220FA55
:100330000CFB4FEA14491343BBFBF9F81FFA84FE88
:1003400009FB18BB1A0C08FB0EFA42EA0B42924555
:1003500007FA01F73ED9A21808F1FF3004D29245FE
:1003600002D9A8F102002244A2EB0A029BB2B2FB1E
:10037000F9F809FB182208FB0EFE43EA02429645F3
:100380002AD9A21808F1FF3304D2964502D9A8F160
:100390000203224443EA0040A0FB0593A2EB0E02B5
:1003A0009A42CE46984602D306D14F4504D2B9EBC5
:1003B000050E63EB0408013886B1B7EB0E0362EB60
:1003C000080707FA0CFCCB404CEA0303CF40C6E910
:1003D00000379CE74046C7E74346DBE73146FDE68A
:1003E00073B5424DD5F85831996811F0010123D108
:1003F00001AA40F6034009F011FD0446002872D11D
:10040000019B9B681B78A3B90BF016FABFF35B8FB7
:100410002B4653F8CC2FBFF35B8F02F00502BFF3DE
:100420005B8F53E8001F43E800200028F9D1BFF399
:100430005B8F019832F0DAFD01AA002141F203003E
:1004400009F0ECFC044600284DD1019B284899682E
:10045000082201313BF09CF8019832F0C7FD21469B
:1004600001AA41F2010009F0D9FC044600283AD162
:10047000019883685A7885F86820D9789A7842EA92
:100480000122A5F86A201A7985F86920197ADA79A3
:1004900042EA0122A5F86C205A799B7942EA0323AB
:1004A000A5F86E3032F0A2FD214601AA41F2020009
:1004B00009F0B4FC0446B0B9019B0E48996840228B
:1004C00001313BF065F80B483BF0FFF8019832F042
:1004D0008DFD95F874305A0610D40748452139F03F
:1004E000ECFE6FF01204204602B070BD80000020C8
:1004F000F0000020F80000208A540400214601AAE0
:1005000042F2030009F08AFC04460028EBD1019B6B
:10051000BD489968082201313BF03AF8019832F061
:1005200065FD214601AA42F2020009F077FC04466B
:100530000028D8D1019B9B68B3F80120A5F8FC20C6
:1005400091B221B1DA78B148114640F0E2FB01984E
:1005500032F04CFD95F8746016F0200600F0F38040
:1005600095F894301B0712D501AA002142F21C0015
:1005700009F054FC04460028B5D101988368D3F8EB
:100580000120D3F80530C5E9362332F02FFD95F868
:10059000D0309E0623D50DF10201684609F0AEFC6D
:1005A000044600289FD1042142F2240009F0F2FA07
:1005B0000646002800F0CE800421083032F088FE84
:1005C000BDF800300380BDF802304380224631463A
:1005D00042F2240009F022FC0446002883D195F859
:1005E000D0305C0610D501AA002142F22A0009F0A1
:1005F00015FC044600287FF476AF019883685B7889
:1006000085F8183132F0F2FC082142F2010009F0BD
:10061000C1FA0446002800F09D800821084432F009
:1006200057FE95F8D01011F0400F024640F2022319
:1006300008BF032388074CBF43F02C0043F00C0095
:100640008B0695F8D13048BF40F0400013F0090FF9
:1006500095F89A3018BF40F4006003F00603CE0707
:1006600048BF40F01000062B08BF40F4C0700021C6
:100670003BF0A7FA2146002242F2010009F0CEFB2E
:10068000044600287FF42FAF95F87430B5F8FC10BD
:10069000980674D4D9B901AA41F2050009F0BEFB4D
:1006A000044600287FF41FAFB5F8FC3063B9019B06
:1006B0009B685A78997842EA0122A5F8FC209A882A
:1006C0005248114640F025FB019832F08FFC08217A
:1006D00040F6014009F05EFA044600283AD00821AD
:1006E000084432F0F5FD95F8D030D90702464FD5D1
:1006F00043A1D1E900013BF064FA2146002240F613
:10070000014009F08BFB044600287FF4ECAE014663
:1007100001AA4FF6014009F081FB044600283BD0B6
:100720003B48572139F0C9FD0AF0CCFC04460028AB
:100730007FF4D9AE0CF0F8FB044600287FF4D3AE6A
:100740000AF032F8CFE6022140F66D4009F022FAB5
:10075000044610B96FF06804C5E60221083032F093
:10076000B7FD0123037046702146324640F66D40C6
:1007700009F054FB044600283FF4F2AEB3E600292A
:10078000A5D12448452139F098FD6FF00404AAE66C
:1007900021484FF00051AEE7019832F027FC214686
:1007A00001AA4FF6024009F039FB044610B11B487C
:1007B0005721B7E7019B1A489968022201313AF0A4
:1007C000E7FE019832F012FC95F8B9305B07ABD523
:1007D00001AA21464FF6034009F020FB10B1114851
:1007E00057219FE7019B10489968012211443AF074
:1007F000CFFE019832F0FAFB96E700BFAFF300801E
:10080000908800020080002050010020800100201C
:10081000DB540400B35404001088000204550400A3
:10082000390100203255040038010020000000008A
:100830002DE9F041D0E90B35866A5C193034A642C7
:100840008846174618D81C4DA3FB050118A3D3E909
:100850000023FFF745FCA41B20F07F40C8F80000F0
:1008600013A3D3E90023A4FB0501FFF739FC20F013
:100870007F403860BDE8F0810F4C0DA3D3E9002321
:10088000A6FB0401FFF72CFC05F1300120F07F40AE
:10089000C8F8000006A3D3E90023A1FB0401FFF779
:1008A0001FFC20F07F403860BDE8F081AFF300808E
:1008B0008D49FD1A0700000000CA9A3B00000000A5
:1008C0002DE9F04FAC4C8FB094F86A20002800F06E
:1008D000398112F0010740F0378194F82500FF2399
:1008E00000F0030084F826302DF0DAFE94F86A0058
:1008F00041072DD494F8292094F8353004EB820276
:1009000004EB8303D2F82C80D3F83890B8F1000FB1
:1009100011D09948414627F0CDFA98F800305A0690
:1009200005D5062122F0C6FA002800F0CE819248B3
:10093000494627F0BFFA98F8003013F00E0F40F048
:10094000EE80236A9BB10C2738460FB0BDE8F08FCC
:100950003A4604F16B01C0F3C0002EF055F8FF28B1
:1009600084F82600C6D038462DF0E0FEC2E726F017
:100970005DF98246002800F0B28126F063F98346D3
:10098000002800F0B18128F05FFB0546002800F048
:10099000A881406F4FF6FF732B8505F11C030028DB
:1009A00000F0998105F1680205F164010B9322F0D2
:1009B0008DFAB5F86020714B22F4EF6222F0070245
:1009C00042F4887242F00102A5F8602095F83920BF
:1009D00002F03F0262F07F0285F8392095F87A2014
:1009E00022F0070285F87A2095F83C2022F00702D1
:1009F00085F83C2095F8D82022F0070285F8D82009
:100A00004FF01B120026C5E916230622A5F8C020C8
:100A1000C5E912666E67A5F87860EE852E6385F8E5
:100A20003B602E65A5F8C460A5F8C860A5F8D06045
:100A3000A5F8CC60A5F8E46085F8E660C5F8086123
:100A4000A5F80C61A5F8206125F0B2FB95F83A21D4
:100A5000A5F8386122F0030285F83A2195F87A204A
:100A6000A5F8406122F0180285F87A2095F86621F1
:100A700085F8436122F0070285F8662195F8862102
:100A8000C5F844A166F3451285F8862195F8AE2194
:100A9000A5F8646166F3C302C5E94A01002100209C
:100AA000C5E94C0185F8AE2185F8D960A5F88461C7
:100AB000C5F8E060A5F8AC61A5F8B86128F00CFEB7
:100AC000A5F8D20028F00EFED5F8BC112C4AA5F8E6
:100AD000D4000A40C5F8BC2128F00AFE95F8C021D0
:100AE00060F3020285F8C02128F008FE0B9B236208
:100AF00095F8C031C5F8C46160F3C503C4E918AB0B
:100B0000C5E97466C5E97266C5E905662E70ED61D2
:100B100085F8C0312EF0F2FF002840F0D88094F81C
:100B200024300121C3F342030DF133008DF833303B
:100B300022F04CFB30BB236A002B3FF404AF26F0BD
:100B400083FE00E7D50704D4002738460FB0BDE880
:100B5000F08F236A5BB193F8202042F0020283F801
:100B60002020236A93F82030D8073FF5ECAE0FB071
:100B7000BDE8F04F26F0AABED0430020480148014E
:100B80000000FFF699F801100246404626F04EFF9D
:100B90005B49B4F8689031230025A360A0FB0101F4
:100BA00055A3D3E90023C4E9055525706560E560C8
:100BB000FFF796FA206123F001FD0646B9F1000F18
:100BC00008D198F8005005F00F05A5F10105B5FA18
:100BD00085F56D0994F82400236965F3000010F091
:100BE000010584F8240031D00020464ADFF818912E
:100BF000049302250DF13408019305920321CDE9F8
:100C00000200069433460090CDF82080CDF81C9069
:100C10002A460D9523F0A8FB414626F097F80028B8
:100C200089D13A4A05924AF2D8320092CDE90300BE
:100C3000CDE90100CDF81C90CDF820800694334614
:100C4000012203210D9523F08FFB29E0304A314822
:100C5000049303F24713A9FB000106940295136065
:100C6000912303FB0911284B0793264B05934FF65D
:100C7000FF7309924FF0020903930DF134081EA38C
:100C8000D3E90023CDF83490CDF82080FFF728FA7F
:100C90003346CDE900504A462846032123F00EFB97
:100CA000414626F053F800287FF445AF94F86A30A7
:100CB00043F0010384F86A3027F008FB00287FF432
:100CC00043AF01202DF0CEFC3EE612273CE626F095
:100CD000BBFD032738E605F16C00686762E607276D
:100CE00032E6584625F0B4FF504625F0A5FF072709
:100CF0002AE600BFAFF300808D49FD1A070000000F
:100D000000CA9A3B9D7A02007D620200D9750200FA
:100D100044440020002AE78470B590F824308AB05B
:100D2000C3F342030D46044601210DF1230016468C
:100D30008DF8233022F04AFA71780246284626F0D0
:100D400075FE1D491AA3D3E90023A0FB0101FFF79B
:100D5000C7F923699842054620D21B1A0022019246
:100D6000164A0293164BA21AA3FB023202219209E1
:100D700000230A4409AE099112490591CDE90333D4
:100D80000321D2B206960093184623F05FFB31464A
:100D900025F0DCFF48B925610AB070BD02D9C21A3E
:100DA0000023DCE700200AB070BD0C200AB070BD43
:100DB0008D49FD1A0700000000CA9A3BD04300206D
:100DC00009CB3D8D7D62020038B5194C9DF810E0CD
:100DD00094F844C01CF0010522D163F3420C400199
:100DE00094F83230A1874FEACE0E0EF0180E00F0C4
:100DF000200040EA0E0023F0380303430D4884F836
:100E00003230A2FB0001912303FB021106A3D3E9B8
:100E1000002384F844C0FFF763F92064284638BDF6
:100E20000C25284638BD00BF8D49FD1A070000007B
:100E300068440020002AE78410B59DF808C00446E5
:100E400049014FEACC0000F0180001F0200CA17D10
:100E500022844CEA000C0C4821F038014CEA010CC9
:100E60009122A3FB000102FB031184F816C004A326
:100E7000D3E90023FFF734F9606210BDAFF30080BF
:100E80008D49FD1A07000000002AE78400000000D9
:100E90002DE9F047044600F1350190F8440094F83C
:100EA0003230C0F3400060F386138CB084F83230E7
:100EB00023F0BCFB94F83220A38F4D48E46102F08C
:100EC00079020025A3FB000184F83220912202FB65
:100ED0000311C4E9055544A3D3E900232570FFF7A6
:100EE000FFF83123C4E90153236CE5600933A0F115
:100EF0003102934232BF236125612564064623F007
:100F00005DFB236A07460DF12C08002B4CD0394DB0
:100F1000394BCDF820800694651BA3FB053534487A
:100F2000A38F4FF0000AA3FB00019122CDF80CA083
:100F300002FB031123690493304B0793304B059355
:100F40004FF0020928A3D3E90023CDF82C90FFF736
:100F5000C7F8104619464FF47A720023FFF7C0F81D
:100F60002D090435EDB22A46CDE901603B46032147
:100F7000CDF800A0504623F0F7F9414625F0E6FEF3
:100F8000054668B994F8443043F0010384F84430CE
:100F900026F066FF0446F8B128460CB0BDE8F0879D
:100FA0000C200CB0BDE8F087CDE90A332169434637
:100FB0000AAA032001F094F90B990029A7D011483F
:100FC00009A3D3E90023A1FB0001FFF789F80A9FD9
:100FD00020F07F4007449AE748462DF043FB204627
:100FE0000CB0BDE8F08700BF8D49FD1A0700000076
:100FF000002AE78468440020398EE3387D620200CD
:10100000C980020000CA9A3B2DE9F04FC38D458E7E
:101010001D4490F80E31ADB22944164613F0070274
:101020008BB0044689B20AD0531E042B00F27083A1
:10103000DFE813F0C6013702A10150013A02B0F80F
:10104000E870C91B1FFA81F8090400F16E8190F95C
:101050003930002BC0F26A8294F8E43084F8E5302D
:1010600094F8842194F8853194F80C1184F80D11CA
:1010700093420AD094F8863103F00F03062B04D173
:10108000002384F88521A4F8C830BF4BD4F8089118
:101090001A68944204BF00221A60B9F1000F00F0F0
:1010A0005A81D9F80000002800F05581B4F81031B9
:1010B000B4F82AC04268C4F808216345B4F8122184
:1010C000B4F8141100F03A82B4F828C0A9F81E3020
:1010D000182389F804300023A9F806C0A9F82020B5
:1010E000A9F8221089F81C30494625F0B7FD25F0F3
:1010F000BFFDA368002B09DAE168626823F00043B2
:1011000091422CBF7618B618A360F61A608DB4F819
:10111000109110FB08F080B2B0FBF9F119FB01F35C
:101120009BB298421FFA81FA80F004811B1A40F2A8
:10113000E241964803FB01F1A1FB000190A3D3E932
:101140000023FEF7CDFF20F07F400644E38D1F44CF
:1011500094F939307D1B554440F2E24B002BE58574
:101160000BFB09F7C0F20C82D4F81811874884A34E
:10117000D3E90023A1FB0001FEF7B2FF20F07F4876
:101180003D4608F10108824AB4F81431B4F812015E
:101190008049A4F82A903A44B2FBF7F2A4F8C6209A
:1011A00042F2107202FB03733944013BB1FBF7F1C9
:1011B000B3FBF7F78AB2831D9A42A085A4F8C270E8
:1011C000A4F8CE2004DDC0F57F43FA331A4492B26E
:1011D00094F80E31A4F8CA201B0744BF0023A4F8DA
:1011E000C4300221012031F003FA0022022181469D
:1011F000012021F0BBFE68494FF4F072204621F037
:1012000045FE00F1050A5FFA8AFA644B00945246E3
:101210000121002023F032F930F002030CD0604AA3
:101220006049614840F6CB4338F055FE404080F3BA
:1012300011884FF0030002DF544FA5FB077B50A33A
:10124000D3E9002338465946FEF74AFF20F07F4590
:1012500056480723A5FB0001381A03FB05116BEB69
:1012600001014FF47A720023FEF73AFFCDE90150F5
:1012700008940694CDF80080216994F939504C48BF
:1012800004914C494C4C079411EA250138BF0146A2
:1012900005914FF6FE71334603915246012100201D
:1012A00023F062F830F002030CD03D4A3D493E483D
:1012B00040F6E54338F00FFE404080F311884FF0D0
:1012C000030002DFB9F1000F40F0548100200BB0A1
:1012D000BDE8F08F828D90F80E51D0F8EC300632D8
:1012E0001144D0F8C42189B26FF30205A0F8E810C8
:1012F0001981A3F10900D4F8C81184F80E5122B164
:1013000094F86651AE0740F18981002900F09D8173
:10131000D4F8CC21116843F8091C106053F8092C4B
:10132000C4F8CC01002A00F08D816FF076000BB07C
:10133000BDE8F08F09FB110140F2E243134889B286
:1013400003FB01F1A1FB00010DA3D3E90023FEF78C
:10135000C7FE361AFAE6124A184913484FF4426398
:1013600038F0B9FD404080F311884FF0030002DFF0
:10137000D9F800009AE66FF00F000BB0BDE8F08FCF
:101380008D49FD1A07000000C444002000CA9A3BA2
:10139000FF5962027FC3C901B8240020B58702004B
:1013A0004C2B04002C2C0400E82304008D49FD1A6A
:1013B000E9D40200F9D202005D870200182C040073
:1013C000DFF81483012025F059FC0746002800F0BF
:1013D0004D81C24821F024FD0546002800F04681D9
:1013E000BF4B1A68002A00F0178125F065FC3B68A6
:1013F000D4F808215A602B79C4F8087143F003032C
:101400002B710C236B710023EB7194F81C312B7240
:10141000B44AD4F81831A2FB03239B0AA5F809307B
:10142000B4F81031A5F80B30B4F81231A5F80D302E
:10143000B4F81431A5F80F3094F80E31C4F8F06008
:10144000032262F3020384F80E31A368002B0ADA48
:10145000E168626823F0004391422CBF7618B61809
:10146000F31AC4F8F030A04B01220935C4F8EC504F
:1014700002211046C3E9024821F0AAFD00283FF4EA
:1014800054AF9A4A9A499B4840F6733338F023FD8B
:10149000404080F311884FF0030002DF6FF07600C8
:1014A00015E7DFF854828DE7D0F8EC20D0F8C4318E
:1014B00090F8E40084F8E50094F80C01884984F879
:1014C0000D0194F8840184F8850100200860D4F8A7
:1014D000C801A2F10901B3B194F86651AD0712D465
:1014E00094F8BF51EF070ED4D4F8D051AB4200F0BE
:1014F000D78058B9187900F00300032800F0DF8086
:10150000C4F8C83104E0002800F0A980D4F8CC3138
:10151000186842F8090C196052F8093CC4F8CC115B
:10152000002B00F0A6806FF08B00D0E690F8D93049
:10153000002B3FF491AD80F8D92091E5B4F82CC090
:1015400094457FF4C1AD40F2E24C0CFB03FE42F245
:10155000107C0CFB01EC0CF1FF3CBCFBFEFCB4F876
:10156000C2E01FFA8CFCE6457FF4AEAD012389F89A
:101570000430B9E501220221104621F0F7FCA5E66E
:10158000226CA36C02FB1833A3642EF00BFB054600
:1015900094F8D800DFF86481C0F3C2002EF004FB99
:1015A000054407FB05F5564B94F81C2105F57425F9
:1015B00005F23F25A3FB0535AD0CA36C25640BFBA1
:1015C00002F205FB0AF022657A080344963A934238
:1015D00028BF1346C4E911230023A0FB0801C4F867
:1015E000E0303BA3D3E90023FEF77AFD3D4B361AEA
:1015F000D4F81801A3FB0030800A0BFB00F0A0FB1D
:10160000080133A3D3E90023FEF76AFD7D1BB4F87C
:10161000109120F07F48B6E51C60E6E694F8BF51D3
:10162000ED073FF572AED4F8D051AA4226D000297A
:101630007FF46EAE117901F00301032962D0C4F882
:10164000C82167E6C4F8D4016FE643F8092CC4E961
:101650007100C4F8CC01002A7FF467AEF2E742F8CB
:10166000093CC4E97111C4F8CC1159E76FF0680066
:101670002DE6C4F8D4116FF08B0028E61568C4F885
:10168000D05100297FF444AE116843F8091C106062
:1016900053F8092CC4E97200002A7FF446AED1E762
:1016A0001D68C4F8D05100287FF430AF186842F8A4
:1016B000090C196052F8093CC4E9721130E7D87975
:1016C0000328F3D00A287FF41BAFEFE7AFF30080C5
:1016D0008D49FD1A070000003DDB0200584500203F
:1016E000C44400205917B7D1B80D00204C2B04007A
:1016F000C8280400E8230400A924000000CA9A3B7B
:1017000083DE1B43D1790329BED00A2997D1BBE7D9
:10171000074A0849084840F6C73338F0DCFB404028
:1017200080F311884FF0030002DF4FF0000849E614
:101730004C2B04008C240400E8230400000000006B
:101740002DE9F04F0B68D2F800801B6897B00C466B
:101750000A93037F00F11E01C3F380130546174669
:1017600014A806228DF8473039F012FF94F8119032
:10177000B9F1FF0F0DF1480B5BD05A460DF147014F
:1017800048462CF08BFC9DF8473002338DF84730EB
:101790002946032251F82E6B07F1080007F1040ACD
:1017A00039F0F6FE07F11803042205F12A0150462C
:1017B0000B9339F0EDFE0B9B052205F13A0118461B
:1017C00039F0E6FE0B9B0521184621F0FFFC7B7FDC
:1017D00095F83F2000F03F0060F305037B77C2F3EC
:1017E0000403BB77AB8EFB81012899B202F01F0383
:1017F00005D91B3303F01F030B2B00D8F9B90A9B43
:10180000EC6800225A6197F82030304662F30003FA
:10181000012687F8203029462E7125F01FFA20680E
:101820002671214625F01AFA25F022FA17B0BDE8F4
:10183000F08F062214A9584639F0AAFEA8E72368BB
:101840000020586095F8370095F8363043EA0023B9
:101850003B8298F8D830520962F3C5036A8E0D9224
:1018600040F2E24202FB01F088F8D8300B902EF0F3
:1018700099F90C9098F8D800C0F3C2002EF094F9B2
:101880000C9BC54903440B9800FB03F303F5742339
:1018900003F23F23A1FB03239B0C7B6295F83130BD
:1018A000398A40F2E24203FB02F24308963BBA63F4
:1018B000BB622B8FB94AADF83A309E46B84B84468E
:1018C00003440244B3FBF0F3B2FBF0F242F21070B7
:1018D000A8F8C6201FFA8EF200FB02C2013A881D4A
:1018E000B2FBFCF2A8F8C2209AB28242A8F8CE203D
:1018F00004DDC1F57F41FA310A4492B2A8F8CA204A
:101900005146042208F1DC0039F042FE2B4613F860
:101910001C2FC2F34011DA070F910C9100F11581D1
:101920004FF48073AB830A9B93F826002DF0B2F935
:101930000146062205F12B00002900F0EB8005F19D
:10194000240139F025FEB9F1FF0F05F1250000F063
:10195000E48014A9062239F01BFE9DF84730AB77CE
:101960005946062205F11F0039F012FE98F8D830CA
:10197000FA896A863A8AAA86C3F3C203BDF83A2076
:1019800085F83830EA86404627F06AFB2946B88158
:10199000E8806568304625F061F9BB89EB801B2340
:1019A0002B710C9B2E68002B40F0BC809DF83C30C6
:1019B0002B772946304625F051F925F059F997F84B
:1019C0004500B7F84050B7F84260012100F0070029
:1019D0002DF0F6FE2E4406F5E17631188246714868
:1019E0004FF000093123C8F80830A1FB000168A3BB
:1019F000D3E90023C8F80490C8F80C90FEF770FBF8
:101A00000B9B7E6A0D9AE5689E1B40F2E24303FB46
:101A1000025520F07F4005F2B245A5EB0A034A4685
:101A20000221C8F8100001200B9321F09FFA0A9DB3
:101A3000284626F0FBF9821C5B4B0095D2B2484643
:101A4000012122F01BFD012800F08C800A9B93F8F5
:101A50002430DB0771D4404627F002FBDFF84491C5
:101A6000A6FB09564AA3D3E90023834631462846FC
:101A7000FEF736FBA368CDF818800BF10504A3F13F
:101A80003A0B4A4B07934A4B05934FF4E473089380
:101A9000D8F8103020F07F4746484FF0000ACDE9D3
:101AA00003A3A7FB00010723281A03FB071166EB1A
:101AB00001014FF47A720023FEF712FB0B9BCDE974
:101AC0000170A3FB090132A3D3E90023FEF708FB51
:101AD000E4B220F07F4000905B4622460121504650
:101AE00022F042FC30F002030CD0334A3349344830
:101AF00040F2C91338F0EFF9404080F311884FF0FD
:101B0000030002DF01220221104621F02FFA17B054
:101B1000BDE8F08F39F047FD15E70622002139F0C6
:101B200042FD1AE77B7F43F040037B7750462CF061
:101B3000B3F80123F8832B773BE7002301220093BE
:101B40001846114622F09AFC85E71B4A1D491C489D
:101B5000F12338F0C0F9404080F311884FF00300C2
:101B600002DFDDE625F030F90A9B83423FF46EAFD9
:101B7000114A1549124840F29F2338F0ACF9404011
:101B800080F311884FF0030002DF5FE7AFF30080BE
:101B90008D49FD1A0700000083DE1B43FF596202D6
:101BA0007FC3C90100CA9A3BBDD202008DD2020098
:101BB000F9D202008D49FD1A482D04002C2C040096
:101BC000E823040044260400A42D040000000000C3
:101BD0002DE9F04F8BB00F460493BDF858300590B7
:101BE00006930020BDF860309DF85490BDF85CB0BD
:101BF0000393164626F078FB002800F09D8109F03B
:101C0000010A0546504622F001FDBAF1000F6AD1E3
:101C10002B6A05F11C020792002B6BD0D5F82080AF
:101C2000D8F8004098F84400C0F3C00100F0070065
:101C30002DF0C4FDB8F8401000F5E1700144B8F88B
:101C400042000144C648C4A3D3E90023A1FB00011C
:101C5000FEF746FA20F07F40206130462CF042FD2E
:101C600095F833306FF3410385F83330FF2385F85F
:101C7000343066B3A9F10203012B40F2618195F87B
:101C80004430049A69F3420385F8443095F83330C0
:101C900062F3000385F833301499062205F124001D
:101CA00039F076FC039B2B86059A00963B4605F19E
:101CB0001C000021FFF7C0F82DF020FF002840F0A5
:101CC0005B812846FFF7E4F80BB0BDE8F08F2DF0FC
:101CD0008FF90028CED01499049832462CF094FE47
:101CE00085F83400C6E7062121F0E4F800288FD1FA
:101CF0001220E9E724F09AFF0790002800F0738192
:101D000027F0A2F90446002800F08F81203021F04E
:101D100071FA04F11C08002840F05881032104F1F5
:101D200024002DF0D9FB069B606F63854FF6FF738F
:101D3000A4F82CB02385002800F0578104F1640139
:101D400004F1680221F0C2F8B4F86030854A23F447
:101D5000EF6323F0070343F4887343F00103A4F80F
:101D6000603094F87A3023F007034FF0000B84F8CA
:101D70007A304FF01B13C4E91632C4F874B0A4F8DB
:101D800078B0A4F82EB0C4F830B004F134002BF0D1
:101D900037FF94F8393060F30503012184F83930B6
:101DA0000DF127002DF098FB9DF827206E4BDDF8F4
:101DB0000CC0A08D84F83BB0A3FB0213DB0803EB3F
:101DC0004303A2EB8303053384F83A3094F83930A7
:101DD0000699A4F8C4B003F03F0384F8393094F8AE
:101DE0003C30A4F8C8B023F0030340F2E24284F888
:101DF0003C305E4BA4F8D0B002FB01F10A460B4424
:101E0000B3FBF1F35A49A4F8CCB01144B1FBF2F1A1
:101E1000A4F8C61042F2107101FB0C210139B1FB8C
:101E2000F2F2A4F8C2200622A4F8C020811D9AB2C2
:101E30008A42A4F8CE2002DD063A121A92B294F831
:101E4000D830A4F8CA204FF0000B23F0070384F821
:101E5000D830A4F8E4B084F8E6B0C4F808B1A4F827
:101E60000CB1A4F820B124F0A3F9079BC4F84431C5
:101E700094F83A31A4F838B123F0030384F83A31E6
:101E800094F87A30A4F840B123F0180384F87A303B
:101E900094F8663184F843B123F0070384F866317F
:101EA00094F88631A4F864B16BF3451384F8863155
:101EB00094F8AE31A4F884B16BF3C303002284F824
:101EC000AE310023C4E94A01C4E94C23A4F8ACB103
:101ED000A4F8B8B127F000FCA4F8D20027F002FC67
:101EE000D4F8BC21234BA4F8D4001340C4F8BC316F
:101EF00027F0FEFB94F8C03160F3020384F8C03190
:101F000027F0FCFB94F8C031C4F8C4B160F3C503FA
:101F100084F8C0313123C4E974BBC4E972BBC4F88E
:101F200004B0C4F80CB0A360C5F82080C4E905BBB8
:101F300084F800B0E46175E60C200BB0BDE8F08FCA
:101F400000202CF0F3FB95F8333043F00203D14628
:101F500085F8333093E600BF8D49FD1A0700000075
:101F600000CA9A3B48014801ABAAAAAA7FC3C9018B
:101F7000FF5962020000FFF62C6AA36D63B12D4A7F
:101F80002D492E484FF4976337F0A5FF404080F36A
:101F900011884FF0030002DF04F14C0104F1480006
:101FA00020F098FF0646002831D02768A665D7F8AC
:101FB0004441F4B1204624F03FFE384627F04AF869
:101FC000002303202B620BB0BDE8F08F194A1C4997
:101FD0001A48BF2337F07FFF404080F311884FF04D
:101FE000030002DF9AE607206EE604F16C006067EA
:101FF000A4E6104A1349114840F2C14337F06BFF81
:10200000404080F311884FF0030002DFD2E7094A15
:102010000C490A4840F2BA4337F05DFF404080F374
:1020200011884FF0030002DFBFE7079824F004FE99
:10203000072049E6E82D0400202A0400E8230400D4
:10204000A0270400A42B04002DE9F04F80468FB098
:1020500004460F46154600F1240106220CA818F884
:102060001C6F39F095FA94F81C9018F0010FC9F321
:10207000401BC6F3C016D94640F004810023A38359
:10208000B97C97F8118011F0010104F12B004FF099
:10209000060200F0E18004F11E0139F079FAB8F18E
:1020A000FF0F04F1250304F11F0A00F0DF80524600
:1020B000404604F11E010B932BF0F0FF0B9B1846DA
:1020C000A37F02330CA9A377062239F061FA3B689B
:1020D000D3F800A0EB8963862B8AA386BAF8303048
:1020E000E3862DF05DFD84F83800D5F80080404689
:1020F00026F0B6FF7E68A8812146E080206824F0A3
:10210000ADFDAB89F3801B2334683371B9F1000F47
:1021100040F0C68086F81CB03146204624F09EFD73
:1021200024F0A6FDD8F80430D8F8086095F84400EB
:10213000B5F80E90FC689E4238BF1E46C0F3C00141
:1021400040F2E24300F0070003FB09F92DF036FBF3
:10215000203400220221241A012020F007FF5046DB
:1021600026F09AF8021D564BCDF800A0D2B20121FC
:10217000002022F083F930F002030CD0514A52497A
:10218000524840F2C93337F0A6FE404080F3118830
:102190004FF0030002DF4FF0000A534603220121F3
:1021A000CDF800A0504622F069F9404626F058FFCD
:1021B000BB68CDF81880093B9E1B454B0793454BE8
:1021C000059340F2F933444F0893D8F81030A9FB37
:1021D0000798CDE903A3451D37A3D3E9002348465B
:1021E0004146FDF77DFF104619464FF47A720023F1
:1021F000FDF776FF30A3D3E900230290414648461D
:10220000FDF76EFF2CA3D3E900230190A4FB070187
:10221000FDF766FFEDB220F07F40009033462A467E
:102220000121504622F0A0F830F002030CD0254ADC
:102230002549264840F2FA3337F04DFE404080F3FE
:1022400011884FF0030002DF01220221104620F026
:102250008DFE0FB0BDE8F08F39F0A5F9B8F1FF0F92
:1022600004F1250304F11F0A7FF421AF184606226A
:10227000002139F098F9A6770CA95046062239F0CA
:1022800087F924E70F4A154910484FF4527337F085
:1022900022FE404080F311884FF0030002DFEDE69C
:1022A0006B7F43F040036B77281D2BF0F5FC012377
:1022B000E883337730E700BF8D49FD1A070000003F
:1022C000B5D40200E82D04002C2C0400E8230400FF
:1022D000B9D40200E9D4020000CA9A3B44260400A3
:1022E0002DE9F04F8FB01E4609931546FF230A1DB6
:1022F000DFF80481DFF804B1DFF804A1DFF804910E
:1023000008920021316004468DF82F3004930C911F
:10231000059106910DAF0CAE02230D93CDE9018717
:1023200000962B460DF12F022146002022F0E8F8FE
:1023300002282DD00D9B002B30D19DF82F30FF2B84
:102340003CD0052BE8D1002026F092FE0028E3D0F7
:1023500090F93930002BDFDB049902690C9BFF29CF
:102360000CD0069907921846049322F029F9059B90
:10237000089A99188842049B079A22D8CDE9052328
:102380009DF82F300493C7E72146002022F0FEF885
:102390000D9B022BF8D00D9B002BCED073235A46F9
:1023A0005146484637F097FD404080F311884FF082
:1023B000030002DF9DF82F30FF2BC2D1049BFF2BBF
:1023C00010D0DDE9053210481344A3FB00010722B9
:1023D00002FB031106A3D3E90023FDF781FE099B4D
:1023E000803018600FB0BDE8F08F00BFAFF3008001
:1023F00000CA9A3B0000000085D80200402E04006D
:10240000842E0400E82304008D49FD1A000000001A
:1024100070B582B01C4601921546064601AA0220FC
:10242000FFF75EFF23680BB30198431B1B021FD409
:10243000294622F0C5F81A4A03460721A0FB0202EA
:1024400001FB032114A3D3E90023FDF749FE226811
:1024500002442260002A09DB40F2E24006FB00F061
:10246000904203D2121A8242FCD8226002B070BDA0
:102470000146284622F0A4F8094A03460721A0FB9A
:10248000020201FB032104A3D3E90023FDF728FE88
:102490002268121A2260DDE700CA9A3B00000000A1
:1024A0008D49FD1A000000002DE9F041B0F89411AB
:1024B00088B0044640F2E2434748002603FB01F19E
:1024C00005AD0623C5E901668DF80F30A1FB0001BB
:1024D0003FA3D3E900230596FDF702FE0DF10F039C
:1024E00001950093B4F88A31049004AA2046012192
:1024F0002BF0CAF99DF80F8008F1FF3C5FFA8CFCC5
:102500000DF11603304604F5CA7703EB4C0C04F5C5
:10251000D0764FF6FF7E3A88B8F1000F0AD02B46EE
:10252000724504D0198891424FF001001DD002334A
:102530009C45F5D10237BE42EDD1D4F8EC3048BB12
:10254000BDF8142040F2E24102FB01F1100AC4F888
:1025500018111A70587094F80E31042262F30203B5
:1025600084F80E3108B0BDE8F081D4F8EC1040F2E8
:10257000E24302FB03F3100AC4F818310A704870F2
:1025800094F80E31042262F3020384F80E3108B08D
:10259000BDE8F081032203F8042C13F8052C94F80D
:1025A0000E11052542F00302112003F8020C03F876
:1025B000052C65F302010F20202203F8010C1A708C
:1025C00084F80E1108B0BDE8F08100BFAFF30080C1
:1025D0008D49FD1A0700000000CA9A3B0000000068
:1025E00038B504462EF06CF9A27DC2F341030133E5
:1025F00003F00303032B34D063F34202A27503F10B
:1026000025002DF099F863680BB32369FBB12FF017
:1026100081FE054621F0D2FFC11C00202FF048FEAC
:102620002FF0C4FE2FF076FE294621F0C9FF124993
:1026300003460722A0FB010102FB03110CA3D3E90F
:102640000023FDF74DFD23691B1A236138BD21F0DE
:10265000B5FFC11C00202FF02BFEBDE838402FF045
:10266000A5BE6FF34202A2752520CAE7AFF3008032
:1026700000CA9A3B000000008D49FD1A00000000CE
:102680002DE9F04F87B004462FF022FCC0B250B9BC
:102690002DF0AAF8B44821462FF0F4FA07B0BDE8AF
:1026A000F04F2FF0EBBB2FF033FC05462FF052FD1F
:1026B00083462FF059FD81462FF066FF06462FF026
:1026C00047FF82462FF00AFDEDB280462FF0ECFC6A
:1026D0002DF08AF8002DDDD0012024F01BFC0546EA
:1026E000002800F07D811BF0FF0BF6B240F06F81F7
:1026F000002E40F0CC80FF275A463B46314620460C
:102700002EF00CFB0028C5D02B7F626800218DF8CD
:1027100013105FFA88F803F00F01002A00F0D3804D
:10272000626892F82020900700F1CD800729B1D08F
:10273000A27D120740F16281002940F0AE806B7FDC
:10274000252B00F22281042024F0E4FB0028A1D0F4
:102750002FF034FE636A804643B9238C40F2712225
:1027600002FB03F3B0FBF3F203FB120823681A69C0
:102770007E4B0721A2FB030301FB023178A3D3E9BF
:102780000023FDF7ADFCA0F24233434582D32FF086
:102790007DFC384663682CF08BFAE37D9B0781460D
:1027A00040F1CF81002800F0CC8183464FF0010832
:1027B0002FF0BCFB2B7F05AA039205F11E020146F8
:1027C0008246C3F38013009220460022CDE9018B9C
:1027D0002EF0BEFA50462FF02FFB2FF06FFB002893
:1027E00040F0C581624821462FF04CFA6168A37D14
:1027F00091F8202043F0800342F0010281F820206C
:10280000A37524F0A5FB1623804603714FF6FF73D2
:102810002D7FC380514624221C3038F0B9FE98F831
:102820001C30C8F80840C5F3401565F3451388F817
:102830001C302FF06FFD0021C8F810000120059D0D
:102840002FF00AFB002E08BFFF2788F81970E37DE0
:102850002D1A13F00203C8F8145003D0B9F1000385
:1028600018BF012398F81A2063F3000288F81A2091
:1028700024F06EFB03464146D8F80000C8F80C303F
:1028800024F07CFB24F08AFB07B0BDE8F08F5FFAF0
:102890008AF02CF09BFA07462EE7012915D16B7FB1
:1028A0000C2B7FF4F7AE2A7F009700230193D20907
:1028B00005F1240320462EF083F900287FF443AF6E
:1028C000297F01F00F01002954D0062952D0022996
:1028D00000F0A780012958D16B7F0C2B7FF4DAAE72
:1028E0002A7F00970DF113030193D20905F1240308
:1028F000002120462EF064F9002846D06B7F002B83
:102900003FF4C8AE63682BB12B7F03F00F03072B96
:102910007FF4C0AE03209DF8139024F0FBFA054627
:1029200000283FF4B7AE24F013FB4FF6FF73EB80A3
:1029300005232B71B8F1000F6FD17F20AB7E287675
:10294000002E08BFFF2769F341032868AB762946AC
:102950006F7624F013FB24F021FB9BE6AFF300809D
:1029600000CA9A3B00000000790903008D49FD1A56
:10297000710B03006B7F252B07D8A27D920602D531
:102980006268002A4FD0252BB9D92B7F03F00F03A3
:10299000042B7FF47FAE6B7F252B3FF67BAEA37DB0
:1029A000D9077FF577AE2FF0C1FA2B7F0278C3F3FA
:1029B0008013B3EBD21F7FF46DAE0830062205F111
:1029C0001E0138F0D4FD00287FF464AE96E7A07DA8
:1029D0005FFA89F1C0F3C0002CF08EF907468BE650
:1029E000714A7249724840F2C32337F074FA40408A
:1029F00080F311884FF0030002DF74E6FF2F8DF89B
:102A00001470C3F3801978D0237EDB1BB3FA83F3F1
:102A10005B09002B7FF490AE55E72FF051FBC0B25D
:102A20008CE76B7FAFE796202FF0B4FB00202FF0F0
:102A300085FA032024F06EFA814600283FF42AAE7E
:102A400024F086FA4FF6FF73A9F80630052389F8BB
:102A50000430B8F1000F70D17F23002E89F81830B0
:102A600014BF3B46FF2389F8193099F81A30D9F87A
:102A700000006FF3410389F81A30494624F07EFACA
:102A800024F08CFA2FF052FA2B7F0646C3F3801302
:102A90003278DB0102F0700243F00303134333701A
:102AA0000C23384673702CF003F9E37D9F074FD554
:102AB00000284DD033780146304643F0400300F8FB
:102AC000023B062238F064FD062205F11E0106F1E4
:102AD000080038F05DFD30462FF0AEF92FF0EEF92A
:102AE000002852D12FF062FCA37D324843F001034D
:102AF000A37521462FF0C6F8C6E605F11E0A05AA01
:102B0000514648462CF018FA00283FF4D9AEE37D30
:102B100003F001034B457FF4D3AE5146062204F186
:102B2000080038F024FD297FB0FA80F35B0901F03A
:102B30000F01002B7FF400AEC5E62FF0C1FAC3B23F
:102B40008BE794F8168004F1190BC8F380182FE670
:102B5000A37D3278C3F38013304663F3861200F806
:102B6000022B04F11901062238F012FDACE70E4ADF
:102B700011490F4840F2914337F0ADF9404080F3DE
:102B800011884FF0030002DF2CE6074A0A49084883
:102B900040F2165337F09FF9404080F311884FF010
:102BA000030002DF9EE700BF38340400E433040072
:102BB000E82304008D090300EC3304000A68042AAA
:102BC00070B504460D460AD9B0F80330B3F57F7FDF
:102BD00007D31048452137F070FB00232B602046B7
:102BE00070BD05339BB29A42F9D30B4800220023F3
:102BF00033F0CEFC064628B90848452137F05DFB86
:102C00002E60ECE7211F06483EF06EF800232B6093
:102C1000341DE4E78A38040098110020B03804001D
:102C2000D0110020F0B5194C194D89B02146284625
:102C30003EF05AF804F2044128463EF055F80026CA
:102C4000002700246FF00803CDE90334CDE90667BF
:102C5000CDE901440F4B104900944FF400620F4836
:102C600033F02CFA3B463246284633F091FC0C4AAE
:102C70004FF48061043030F031FE00942346FF228F
:102C80008021204636F088FB09B0F0BDF8280020EE
:102C900098110020A52C000040600020981400200E
:102CA000BD2B00002DE9F043614D624E624F85B0AF
:102CB0004FF0FF324FF0FF33284633F069FC0279C2
:102CC000B0F807300446042A00F2A880DFE802F0DA
:102CD000038A91989F0090F8069090F80580B9F1CA
:102CE000FF0F08D04A465548572137F0E6FA01232E
:102CF0004A4641463EE008F1FF33032B6AD8DFE83D
:102D000003F002192A4C0122002103A838F04BFCE1
:102D10009DF80C30012143F01E038DF80C3000911A
:102D200003ABFF22002036F037FB454821463DF03B
:102D3000DBFFBDE70122002103A838F034FC9DF839
:102D40000C3043F01F038DF80C3001230093FF2259
:102D500003AB0221E6E7427A531E032B17D8DFE8C4
:102D600003F0020D101300F05BFE0128DDD10346D5
:102D7000FF220321002036F026FBD6E702F010F8F0
:102D8000F5E736F056FEF2E703F0B6FEEFE72D4822
:102D9000572137F092FA0120E9E7427A531E032BBC
:102DA00012D8DFE803F002080B0E36F061FC034690
:102DB000FF220421DEE736F0A2FDF8E736F03BFE05
:102DC000F5E737F05DF8F2E71F48572137F075FA5D
:102DD0000120ECE742465721384637F06EFA0223CD
:102DE000FF2286E7817900F10902407900F00EFAAE
:102DF0009BE7817900F10902407901F01FFA94E71D
:102E0000817900F10902407902F082F88DE7817939
:102E100000F10902407902F0DFFB86E757213046D6
:102E200037F04BFAA279617920790123A3E700BF3B
:102E3000D0110020373904001D390400CC380400BB
:102E400098110020EF38040007390400064BBFF347
:102E50005B8F53E8002F024343E800210029F8D19B
:102E6000BFF35B8F704700BF2831002010B50446C8
:102E700060B1FF2203210020012336F0A4FA22468C
:102E80001448BDE81040572137F017BA124BBFF372
:102E90005B8F53E8002F43E800410029F9D1BFF3CD
:102EA0005B8F0120FFF7D2FF0220FFF7CFFF10203A
:102EB000FFF7CCFF4FF40070FFF7C8FF074809F099
:102EC000DDFC23462046FF22BDE81040032136F0FA
:102ED0007ABA00BF5B39040028310020500300207B
:102EE00030B5D3B040F2151200210CA838F05BFBCE
:102EF0002722002102A838F056FB02A9002008F082
:102F0000ADF806220DF109010CA838F041FB1B4B6E
:102F100002AA0AAD144603CCAC421860596022469E
:102F200003F10803F6D120681860A188A2799A718C
:102F300099809DF80830012B03D14FF40040FFF732
:102F400085FF40F21363ADF836300D4B0D491B6819
:102F5000CDF83A3000240B220DF14100ADF8384095
:102F600038F016FB40F21513009322460CAB0321F8
:102F7000012036F011FA53B030BD00BF8758002051
:102F8000283100206A39040070B503788AB00446FD
:102F90000E4607AD032B20D8DFE803F002191B1DF6
:102FA0001149284638F0ABFA63780493A378039369
:102FB000E378029323790193637900930B4AA37911
:102FC00005951E21304636F093FF0AB070BD0849C2
:102FD000E7E70849E5E70849E3E7084A0A21284600
:102FE00036F086FFE0E700BF753904009E39040023
:102FF0007C390400833904008D39040097390400BA
:1030000070B590B00D4601A9064609F0B7FC04461C
:10301000F0B9039808A9FFF7B7FF2A7802B3012A8D
:1030200029D16D78012D29D105991648164D072211
:1030300038F0AEFA74B115490498072238F097FABF
:1030400040B1049808A9FFF79FFF304609F05EFFE2
:1030500010B070BD2A462146304608F021F8F7E747
:103060000B49304638F08DFF021EF1DA0948452140
:1030700037F023F9ECE708484521F9E7074C002D24
:10308000D9D0D1E7AE580020B5580020875800208D
:1030900077580020C1390400DF3904008E58002021
:1030A0002DE9FF47DFF8509199F80050074615F0D9
:1030B0001000884616461C4628D1042A28D0B3F8AA
:1030C00004E003469E4513D9D4F800C01CF8031051
:1030D0005A1CD2B2C1B1AEEB020A514508DC1CF851
:1030E00002A0BAF1010F0CD10233DBB21CF80300CD
:1030F000830703D069074AD5C20748D404B0BDE8A6
:10310000F0875318DBB2DDE70846F1E7042A3ED129
:103110003A4EB38833B93A48492104B0BDE8F04784
:1031200037F0CBB835682946062211F8013B8DF8F7
:1031300008300DF1090038F02BFA072202A93846B1
:1031400038F015FA88B12F48492137F0B6F82B4CE2
:10315000A3880093236800228121012036F01CF906
:103160000023A380A3682360C8E7A188B5F80930CD
:103170000B44A5F809302B7A43F004032B72304638
:1031800030F0A6F8A288216838F002FADFE71B4D7C
:10319000AB8833B100932B6800228121012036F0E7
:1031A000FBF8AB680BB9184BAB60AB682B60002326
:1031B000AB800B21114830F08BF806220546791CB4
:1031C000013038F0E5F93B782B7003232B7285F83A
:1031D0000780A188A5F80910084830F079F8A2887E
:1031E000216838F0D5F999F800301B07AFD516F0F3
:1031F000FD0FACD182E700BF76580020A802002066
:10320000FA390400223A0400B40200202DE9F0410A
:10321000431E012B90B005460E46144610D8FF29D8
:103220001AD001230A460146184636F0CCF8AC48BD
:1032300033462A46572110B0BDE8F04137F03DB87B
:1032400051B101230A460146184636F0BCF8A5489C
:1032500033462A465721EEE71A2B00F2BC83DFE8FB
:1032600013F04D006E007B00BA03BA038000BA036E
:103270009B00DB001B008F01B601EA01F801190277
:1032800036027A029A02FB02190357013F03BA037E
:103290007C038B03A60374032078934A0127002341
:1032A0008342C0F2DA806178904A014400268B4262
:1032B0005FFA86FCC0F2E880DFF83482BFF35B8FF0
:1032C000D8F80030BFF35B8F9C0740F1F380894D45
:1032D0000FCD03AC0FC42B68236003A8BCF1000F13
:1032E000824B8149009608BF00233A4608F038F91E
:1032F000002880F2E78080484521B3E004220021C5
:1033000008A838F050F99DF8203043F04E038DF8AE
:1033100020309DF8223043F07B038DF822309DF859
:10332000233043F00F03FF228DF8233004238DF860
:1033300021200093002208AB0121012009E0002395
:10334000012002218DF821308DF82000009108AB7A
:10335000FF2236F021F803E110B0BDE8F041FFF79D
:10336000BFBD2378624C53B10220FFF76FFD236885
:10337000089304230093002208AB0621DDE7BFF386
:103380005B8F54E8003F23F0020344E80032002A38
:10339000F7D1BFF35B8FEAE72278012A1DD0022A1A
:1033A00026D062BB554A137823F003031370504BA9
:1033B000BFF35B8F53E8002F22F0080243E800219F
:1033C0000029F7D1BFF35B8F494B1B680893042397
:1033D0000093002208AB0821AFE7484A137823F096
:1033E000010343F0020308201370FFF72FFDEBE702
:1033F000424A137823F0020343F00103F3E7572115
:103400003F4836F05AFF012300220821012010B066
:10341000BDE8F04135F0D7BF2378354D83B110209A
:10342000FFF714FD2078003818BF012010F0EEF8E7
:103430002B68089304230093002208AB09217CE742
:10344000BFF35B8F55E8003F23F0100345E80032DF
:10345000002AF7D1BFF35B8FE4E701370B2F07D1C9
:103460002848452136F029FF012300220A21CDE713
:10347000E11808328D781570C97851709D1C04339D
:10348000234453604B190BE701360B2E02F108025F
:1034900002D11D484521E5E7E018857802F8085C6F
:1034A000C07802F8070C9D1C0433234442F8043C06
:1034B0004319FCE6154D0FCD08AC0FC42B682360F3
:1034C00008A80BE74FF48060FFF7C0FCD8F8003085
:1034D000089304230093002208AB0A212DE700BFC4
:1034E000483A04007F3A0400000300202C310020F9
:1034F0002831002040150400003B04006C1000201F
:10350000B83A0400D03A0400E83A04005415040024
:10351000B4F8072000230321D007CDE90913CDE932
:103520000B34ADF820308DF8223005D413230993E5
:10353000F021A023CDE90A3100240094234622463D
:10354000214608A808F00CF8A0420CDA4521A8484A
:1035500036F0B3FE012322461521012035F033FF5A
:1035600010B0BDE8F0814FF48060FFF76FFCA14B15
:103570001B68039304230093224603AB1521DCE66A
:1035800008F020F8041E0DDA0123184600220B2152
:1035900035F019FF98482246452110B0BDE8F041AA
:1035A00036F08BBE934BBFF35B8F53E8002F22F4B2
:1035B000806243E800210029F7D1BFF35B8F1B68CD
:1035C000089304230093002208AB0B21B5E623786F
:1035D00013F0020708D08948572136F06EFE012704
:1035E0003B4600220C2111E71B070ED5844E0FCE5F
:1035F00003AD0FC533682B6003A8824908F054FA65
:1036000000280ADA80484521E7E7804E0FCE08AD52
:103610000FC533682B6008A8EFE77D4B9A6812B995
:1036200003F10C029A609A681A6000229A80794B22
:1036300022781A70D4E708F0B7FA021E07DA764843
:10364000452136F03AFE012300220D21DEE600235B
:10365000FAE7724E06F150030FCB08AD85E80F0074
:10366000306E716E03AB03C303AA204602AB29463A
:1036700009F0B0F9044640B102464521684836F0E9
:103680001CFE012300220E2167E7029808F02EFE9F
:103690002346F7E72146002009F014F9054640B912
:1036A0006048452136F009FE0124234600220F21FF
:1036B000ACE6132138F08CFE044620B15A4845216F
:1036C00036F0FBFD0124284608F010FEEDE7282225
:1036D0000021564837F067FF002009F0DDFB227813
:1036E000042A30D8DFE802F00329231F15004F4BCE
:1036F0004F4A5A614F4A5A604C484F4B03604F4BF8
:1037000003624F4BC36109F0C7FB031E18BF0123BF
:103710001EE0464B464A5A61464A5A60494A9A60F8
:10372000494ADA60E8E7414B414A5A61E4E73F4BD6
:103730003F4A5A61434A9A60DEE73C4B3C4A5A6131
:103740003C4A5A60ECE74148572136F0B6FD012368
:10375000002210215AE62146002009F0B3F8044661
:1037600038B93048452136F0A8FD01230022112147
:103770004CE6022138F0E0FD021E07DA344845210C
:1037800036F09BFD204608F0B1FDEEE7204608F03C
:10379000ADFD0023EAE72146062211F8013B8DF832
:1037A00020300DF1210037F0F3FE08A9002009F0C8
:1037B00089F8054648B91B48452136F07EFD08A921
:1037C000002006F023FEC30F0EE0132138F000FEA8
:1037D0000446284608F08AFD002CF0DA1D482246EF
:1037E000452136F06AFD012300221221B5E600BF13
:1037F000003B040028310020213B0400453B04002D
:1038000068150400A13000005F3B04007C15040033
:10381000A8020020765800207D3B040040150400DB
:103820009E3B0400C43B0400DC3B0400003100204C
:10383000E3930300BB940300E79303002194030088
:10384000E59303008D94030057940300F63B0400B6
:10385000123C0400323C04002146002009F032F8FA
:10386000054638B96048452136F027FD012300227E
:103870001321CBE5D4F8071009F02AFB041E04DA63
:103880005A482246452136F018FD284608F02EFDFC
:10389000E30FECE72146002009F014F8054638B99B
:1038A0005148452136F009FD012300221421ADE5E0
:1038B000E3796BB109F01CFB041E04DA4C48224684
:1038C000452136F0FAFC284608F010FDE30FECE73E
:1038D00009F01CFB041EF6DA464822464521F0E7B3
:1038E000227AE37943EA0223ADF82030A27A637AA0
:1038F00043EA0223ADF82230227BE37A43EA022333
:10390000ADF82430637BA27B214643EA02230020EA
:10391000ADF8263008F0D6FF054638B932484521C3
:1039200036F0CBFC01230022162116E608A938F058
:10393000B0FD041E04DA30482246452136F0BDFCB5
:10394000284608F0D3FCE30FEDE757212B4836F06B
:10395000B4FC00231A461B2158E5102221462848B2
:1039600037F016FE01200FF057FE264B264A1A614B
:1039700000231A46182149E5224B234A1A612024C4
:10398000224600210DEB040037F00DFE1F491022E6
:103990000CA837F0FDFD1E4910220DEB040037F096
:1039A000F7FD00940DEB040300221921C5E4154B2B
:1039B000154A1A6101200FF02FFE102221461548EA
:1039C00037F0E6FD1022A118134837F0E1FD00237F
:1039D0001A461A211AE52A465721104836F06DFC7E
:1039E00002233246294611E5C43B0400503C040042
:1039F000713C0400943C0400B33C0400D43C04003B
:103A00007758002000310020013000009E5800202F
:103A10008E580020B5580020C5580020003D0400F5
:103A200010B50E4C28220021204637F0BCFD0020A6
:103A300009F032FA0A4B2360204609F02DFA0446B9
:103A400040B9084806F0E6FE021E05DA06484521A0
:103A500036F033FC012010BD2046FCE70031002089
:103A6000E79303006D2E00001A3D0400014B19700E
:103A7000704700BFD8580020024840F602020021DB
:103A800037F091BD844F002070B50D4E34460D4681
:103A900034F8023B1C440B44B3F5006F0ED80A46C1
:103AA000014638B1204637F073FD32881544358021
:103AB000204670BD204637F076FDF6E70024F7E794
:103AC000844F002073B51646BDF818501C4609B146
:103AD000144B99707CB9134B134933F8022B0092A5
:103AE00009782246022035F057FC304635F0CBFDF0
:103AF000204602B070BD20462946FFF7C5FF0446A8
:103B000038B90949024609780123022035F05BFCE7
:103B1000EBE7044BB3F803100D44A3F80350012066
:103B2000E7E700BF844F0020D65800202DE9FF4171
:103B300017460D4681B9234B33F8022B00920A46F3
:103B400021490220097835F027FC384635F092FDEE
:103B5000284604B0BDE8F081D1F80C80D8F80030D8
:103B60001B78002B0CBF02261026701D35F0B2FD0D
:103B7000044658B91449024609780123022035F059
:103B800022FC384635F076FD2046E2E72B8A03809A
:103B9000B8F804300671D8F8001043800B7805306F
:103BA0006BB94B88ADF80E3032460DF10E0137F08F
:103BB000EFFC044A9378013393700120C9E7324641
:103BC0000131F4E7844F0020D65800202DE9FF4151
:103BD00090460D4679B9214B33F8022B0092022012
:103BE0000A460D2135F0D8FB404635F043FD284606
:103BF00004B0BDE8F081CF683B681B78002B0CBF98
:103C000002261026F01D35F065FD044650B9024627
:103C100001230D21022035F0D6FB404635F02AFD68
:103C20002046E5E72B8A0380BB884380FB888671AA
:103C3000396883800B7807306BB94B88ADF80E304C
:103C400032460DF10E0137F0A3FC044A937801339C
:103C500093700120CCE732460131F4E7844F002015
:103C60002DE9FF4117460D4681B9244B33F8022B4D
:103C700000920A4622490220097835F08DFB384629
:103C800035F0F8FC284604B0BDE8F081D1F80C808E
:103C9000D8F800301B78002B0CBF02261026B01D70
:103CA00035F018FD044658B9154902460978012334
:103CB000022035F088FB384635F0DCFC2046E2E790
:103CC0002B8A038098F80620027146710133D8F8D8
:103CD000001043800B7806306BB94B88ADF80E307E
:103CE00032460DF10E0137F053FC044A937801334C
:103CF00093700120C7E732460131F4E7844F00207A
:103D0000D6580020F0B5174685B00D4671B91E4B48
:103D100033F8022B009202200A46102135F03CFBBA
:103D2000384635F0A7FC284605B0F0BD0B681B7877
:103D3000002B0CBF02261026F01C35F0CBFC0446ED
:103D400050B9024601231021022035F03CFB3846D1
:103D500035F090FC2046E7E72B8A867029680380BF
:103D60000B7803306BB94B88ADF80E3032460DF14D
:103D70000E0137F00DFC044A937801339370012053
:103D8000D2E732460131F4E7844F0020F8B50D49FF
:103D90000D4D0E4B2E781B7809780D480C225A4396
:103DA0008C1B0C4987184FF0140C0CFB041103EB0F
:103DB000430381507E6000EB83000CF061FA00B990
:103DC0002870F8BDD5580020FA580020FB58002074
:103DD000A8350020C03100202DE9F047D0F8008040
:103DE000264C98F800300546002B2068244B0CBF69
:103DF0004FF004094FF0110998420E463AD0214B7A
:103E00001B78002B38D0204F1422294637F0C0FBF6
:103E10003868D4F800A009F1030101F03C01083032
:103E20002FF0F2F92368CAF8000018684A464146A4
:103E300037F0AEFB86B13868D4F80080F11C21F071
:103E4000030108302FF0E0F92368C8F80C00E96896
:103E5000D868324637F09CFB0C4A2068137801334F
:103E600013700B4A13780133137000F114032360AD
:103E7000BDE8F0870020FBE71846F9E79003002033
:103E800094350020FB580020BC310020D55800207C
:103E9000FA5800202DE9F04782B0CD681C466B7AB5
:103EA00002AF91465A07B7F820800E4650D48B7C5B
:103EB00013F0280F05D197F82430DB070AD500242A
:103EC00042E095F808A038F02FFA8245F3D96FF058
:103ED0000B0439E02B8843453DD308EB04029A429A
:103EE0003CDC686822464946404437F051FB2B8849
:103EF000B3F5007F0BD31B491B481C4A4FF4B77323
:103F000035F0E9FF19484FF4B77136F0CEF92A8839
:103F10006968308A02F10B036D46DB08A5EBC30329
:103F20009D4602F10408ADF80800ADF80A2002AE83
:103F300003A837F02DFBCDF8008033460022812105
:103F4000022035F029FAAD462046BD46BDE8F0878F
:103F50006FF00704F8E76FF00604F5E76FF00C0464
:103F6000F2E700BF803D0400913D04004B3D04009A
:103F70001AB10248452136F0A0B97047AE3D0400A1
:103F8000F7B50C4617461D4600B13AB91822002174
:103F9000204637F008FB002003B0F0BD38F016FAD9
:103FA0000F4B104C9A891B8923810646E27165816B
:103FB0002A46394604F10C0037F0EAFA0622711C51
:103FC000601C37F0E5FA0C35337823700220009539
:103FD00023460022802135F0DFF90120DCE700BF15
:103FE00020360020D95800202DE9F041ADF58C6D28
:103FF000054616AC00214FF48162204637F0D3FA13
:1040000040F2FB332979E3802F88B5F8028000293C
:104010003CD007AE3246681D35F02BFC48B1012379
:1040200000221C21022035F0CEF90DF58C6DBDE883
:10403000F08125220CA9304605F088F90596A36881
:104040000BB919ABA360A368049401332360104B30
:10405000002504AEA5802A46CDE9005341462B46F3
:10406000384602968DF818500CF070F80121204661
:104070002FF0CAF89DF818300370A38800932368C6
:104080002A461C21022035F087F9CEE70591D6E7B4
:104090009D97030038B5114DD1B92B89B3B129468D
:1040A0000DF0FEFBC40FAB89012B0CBF1A251B259D
:1040B00024B10A481822002137F075FA022023465D
:1040C0000022294635F07FF9002038BD0124EAE7B7
:1040D0000B8A01332B810120F7E700BF2036002037
:1040E00070B588B005460E46002442F602130068FB
:1040F0008DF8044001A9ADF8063037F0BBFCB8B12B
:104100004FF4245328688DF8084002A9ADF80A300E
:1041100037F0B0FCB28868B9022A47D1ED6831683F
:104120000DF1020037F034FABDF802302B80002088
:1041300008B070BDEC68238853B91D4B1868033272
:1041400022F0030108302FF05FF8B388606023800D
:104150002388B2889A4229D13168606837F018FA0A
:10416000637A13F00100E3D0124B18780028DFD0F7
:104170000128666824880DD11822002102A837F092
:1041800012FA02A90020CDE90356ADF814400CF054
:1041900077FBCCE70849094B8C82002420464D6010
:1041A0000E618B60CC600CF03BFAC0E70120BFE7EA
:1041B000BC310020D858002094310020713F00000D
:1041C00070B5ADF5846D06AC05464FF481620021F3
:1041D000204637F0E8F940F2FB33E380294600201F
:1041E000B5F8076008F06EFBA3680BB909ABA360D4
:1041F000A3682360002504ABA58002930E4BCDE994
:104200000440CDE900532A462B46314630460BF098
:104210009DFFA2884AB1009223682A461D210220F0
:1042200035F0BAF80DF5846D70BD01231D21022013
:1042300035F0C9F8F6E700BFED9703002DE9F04F20
:1042400099B0431E02AF054614461F2B00F290851D
:10425000DFE813F020005100AA00260117026302D4
:1042600084028E059502AF02C402ED0220036603AC
:104270009303CB03F5031E045A048C04D504DC0419
:10428000EE0413058E053B053B05840589058E0567
:104290008E058C040522002107F1440037F083F9D4
:1042A00097F8443097F8462063F0010387F84430CC
:1042B00097F8453063F0010362F0040287F8453057
:1042C00097F8483087F8462097F8472043F00103D5
:1042D00042F03D0287F84830052387F84720012146
:1042E0000093002207F14403022035F055F85C37B3
:1042F000BD46BDE8F08F07F1300661783246A01C5C
:1043000035F0B7FAD0B997F83030002BB74B1B789F
:104310000CBF4FF004084FF011085BB9B44D2B7877
:1043200001332B70237883B1012B2ED02B78013BE6
:104330002B7003E0FFF72AFD0028EFD001230022B5
:104340000221022035F03FF8D1E74FF42052FA83E2
:1043500007F11C027A64A74A3B77C7E91223A7F842
:1043600054303E650123414607F1440087F856303A
:10437000FFF732FD0028D9D0038AA7F84430022184
:10438000009107F144030022AEE742F60102FA83EE
:1043900007F11C027A64974A3E650020C7E91220A3
:1043A0003877A7F85400DEE707F11C092179E57892
:1043B000A6784A46601D35F05CFA00285CD1238857
:1043C0009CB2002C58D142F60302FA803A1D7A645E
:1043D000894AA7F85430C7E91224012307F10802DB
:1043E000082107F14400C7E902443C713A6587F8A7
:1043F0005630FFF7F1FC804600283DD007F1100A47
:104400000C222146504637F0CEF86B0608D57B7E4D
:1044100015F0140F43F002037B7608BF45F0010549
:104420002C0608D57B7E15F0280F43F004037B761D
:1044300008BF45F00205714B7B6305F07F05704BAB
:10444000C7F83090002445F040050C2107F13000FA
:10445000C7E90E3AA7F8404087F84250FFF7BCFC86
:1044600070B9684C2068082108442EF0EFFE2068DF
:10447000042108302EF0EAFE01230022032160E728
:10448000D8F80C309E7102681A600220B8F810301B
:10449000A7F844302246009007F14403032124E7A3
:1044A000534B1B78FBB1DFF8608198F80030022B8A
:1044B00019D907F13006E178A5783246201D35F08C
:1044C000D8F980B9B4F80090B9F1000F0BD1DFF83A
:1044D0003CA198F80040142303FB04A4283C04F1F9
:1044E0001408D04503D801230022042129E74FF402
:1044F0002053606987F8449007F14401A7F84630DB
:1045000037F0B8FA0028EED042F60103606987F868
:104510001C9007F11C01FB8337F0ACFA0028E2D0B5
:10452000606987F8449042F6030307F14401A7F855
:10453000463037F09FFA143C83460028CFD13874B8
:104540004FF4245407F1100130467C8237F092FA80
:1045500070B342F6021207F10801304687F808B03E
:104560007A8137F087FA002858D1294CD8F80C30D6
:1045700021780029B7D19B7913F0300FB3D02548AB
:10458000D8F82050FFF728FC0028ACD06B7A43F015
:1045900001036B72012323700028A4D0038AA7F8BB
:1045A00044300220009007F14403002204219CE6DD
:1045B000D8F80C3093F90630002B94DA07F11C037D
:1045C0007B64154B3881C7E9123007F108033B655E
:1045D00001233877FC83A7F8540087F8563002216E
:1045E00007F14400FFF7F8FBD6E700BFFA580020B8
:1045F000FB58002085DB030017DF0300DD96030076
:10460000953E0000BC310020D5580020C03100206C
:10461000D7580020940300207DDF03000C22594668
:1046200007F11C0036F0BFFF68060AD597F8253061
:1046300015F0140F43F0020387F8253008BF45F04A
:10464000010529060AD597F8253015F0280F43F003
:10465000040387F8253008BF45F00205A24BBB6470
:10466000A24BFB6405F07F0507F11C033B6545F099
:10467000400500237E64A7F8543087F856500C217B
:10468000AEE79B4B1B78002B43D02488002C40D0F6
:104690001423013C5C43974D07F130084FF00009AB
:1046A0004FF42053285987F8309041462E197B86C5
:1046B00037F0E0F958B142F60103285987F84490E1
:1046C00007F14401A7F8463037F0D4F908BB42F6A9
:1046D00002037B86884BC7F844800024C7E9123464
:1046E0002146012307F1440087F830403E65A7F8D2
:1046F000544087F85630FFF76FFB50B1038AC6600D
:104700000220A7F844302246009007F14403052117
:10471000EBE501230022052113E6231D7B64A3782A
:10472000E278208843EA0223A7F84830714B68B941
:10473000724A1078142202FB003007F14401143849
:10474000FFF7CEFC002203460621FAE51A8A801AFA
:10475000142207F1440102FB0030F1E7684B1B789B
:1047600033B1FFF713FB18B1012300220721E8E55D
:1047700003230093002207F144030721B4E5A17845
:10478000CB1F082B13D822885A4B142052B95B4AEE
:10479000127800FB0230143834F0CDFFC3B200228F
:1047A0000921CEE51C8A121B00FB0230F4E701232D
:1047B000F5E72146002008F085F8044650B151493C
:1047C000514B0B600CF008FA0028204680F2CA8199
:1047D00007F08CFD012300220A21B2E521460020CA
:1047E00008F070F80546F0B1012034F073FFB8B15D
:1047F000464C0023236001222374454B22816360D1
:104800004FF6FF72434BE28121460B2228461A7075
:104810000CF028FA002880F2A481204634F02AFF08
:10482000284607F063FD012300220B2189E521467C
:10483000002008F047F8064640B3DFF8DC80E17955
:10484000424604F1080035F014F80546D8B90120B5
:1048500034F040FFB8B12D4C012323814FF6FF7394
:10486000E3812B4B63602B4BC4F800800C22214664
:10487000304625741A700CF0F5F9002880F25D823C
:10488000204634F0F7FE304607F030FD01230022C9
:104890000C2156E52146002008F014F80546F8B131
:1048A000012034F017FFC0B1227AE379174E43EAB2
:1048B00002233381637AA27A43EA0223F38102233B
:1048C00033743146154B736028460CF0CBF9002841
:1048D00080F24781304634F0CDFE284607F006FDD1
:1048E000012300220D212CE5DD960300953E0000FA
:1048F000FB580020C0310020A5040100D55800203D
:10490000FA58002090310020639803007C31002089
:104910002D3B0000D658002086570020CD3B0000DC
:104920002146002007F0CEFF054610B3012034F0E9
:10493000D1FED8B1227AE379B64E43EA022333811D
:10494000A27A637A43EA0223F38103233374B24BDE
:104950007360B24B0E22314628461A700CF082F971
:10496000002880F2FE80304634F084FE284607F0AE
:10497000BDFC012300220E21E3E42146002007F0C4
:10498000A1FF064668B3DFF89882E17A424604F157
:104990000C0034F06EFF08BB012034F09BFEE8B140
:1049A0009C4DC5F80080227AE37943EA02232B81EB
:1049B000A27A637A43EA0223EB8103232B74964B9A
:1049C0006B60964B0F22294630461A700CF04AF95C
:1049D000002880F2B281284634F04CFE304607F0C1
:1049E00085FC012300220F21ABE42146002007F0C3
:1049F00069FF0546F8B1012034F06CFEC0B1227A9F
:104A0000E379844E43EA02233381637AA27A43EA4C
:104A10000223F381042333743146824B73602846AA
:104A20000CF020F9002880F29C80304634F022FE01
:104A3000284607F05BFC01230022102181E4214677
:104A4000002007F03FFF0546F0B1032034F042FE9E
:104A5000B8B1754E01237360227AE37943EA0223E9
:104A6000338100237381714B33606C4B11223146CB
:104A700028461A700CF0E6FC002872DA304634F052
:104A800002FE284607F032FC01230022112158E4DF
:104A90002146002007F016FF054688B3DFF8809115
:104AA000E17A4A4604F10C0034F0E3FE064620BBEE
:104AB000032034F00FFE00B3DFF86C81C8F80C90CF
:104AC000C8F80460227AE37943EA0223A8F80830A0
:104AD000A27A637A43EA0223A8F80A30534BC8F853
:104AE00000304E4B1222414628461A700CF0AAFCA8
:104AF000002836DA404634F0C6FD284607F0F6FBBB
:104B00000123002212211CE42146002007F0DAFED6
:104B1000054608B3032034F0DDFDD0B1424E012339
:104B20007360227AE37943EA02233381A27A637ABB
:104B300043EA022373813D4B3360384B13223146E5
:104B400028461A700CF07EFC00280ADA304634F051
:104B50009AFD284607F0CAFB012300221321FFF724
:104B6000F0BB284607F0C2FBFFF7C1BB94F80780F3
:104B700043465B00073303F47E736E46ADEB030DD3
:104B80000DF108090023984527DC2146002007F095
:104B900099FE0446D0B1032034F09CFD98B122491F
:104BA000224BC1F80890A5F12002C1E90038534218
:104BB00053410B73194B20461D700CF043FC002829
:104BC00017DAFEF759FF204607F090FB0123002279
:104BD0001421022034F0F7FB0EE01A1D14F8121015
:104BE00004EB4202527841EA022229F813200133F1
:104BF000C9E7204607F07AFBB546FFF778BB0022ED
:104C00001521204634F055FEFFF771BB0122162115
:104C1000F7E700BF7C310020613C0000D65800203F
:104C200086570020053D0000AC310020C53A000049
:104C30002146002007F046FE0546C8B1227AE379F6
:104C40004E4943EA02238B804D4B0B600023CB80FF
:104C500004F10B038B60637AA27A43EA02238B810F
:104C60000CF054FD00282846BFF67CAF07F03EFB51
:104C7000012300221721FFF764BB2146002007F023
:104C800021FE0546E0B1227AE3793C4943EA02235A
:104C90008B803C4B0B60A27A637A43EA0223CB8081
:104CA00004F10D038B60E37A227B43EA02238B81BC
:104CB0000CF02CFD00282846BFF654AF07F016FB79
:104CC000012300221821FFF73CBB21460020B4F845
:104CD000089007F0F7FD1FFA89FA064620B901236C
:104CE00000222946FFF72DBBDFF89C80E479B8F855
:104CF0000A3024B31A2D0CBF01220222012443B131
:104D00002248452135F0D9FA304607F0EFFA23461C
:104D1000E6E71F49A8F80A9003230B741D4B4B606C
:104D20001D4B0C81A1F80E90A8F80C20C8F800309B
:104D30000BF098FF08B10124E6E7304612E753452F
:104D400004D01648452135F0B8FAF4E741460CF096
:104D50004FFE0028EFDBA8F80A40D5E72046FFF712
:104D600043F9FFF7C4BA2046FFF72AFAFFF7BFBAA4
:104D700002230A4601461846FFF7E4BA38360020F7
:104D800099960300B796030020360020C33D040027
:104D90007C31002095400000813F0000ED3D040083
:104DA00008B50848002300223BF083FD064B18603D
:104DB00030B108304FF400612DF0B8FF002008BD7D
:104DC0000120FCE760140020BC310020F8B50C4F36
:104DD00097F800411CB197F808327BB901244FF4D1
:104DE0008472254655437E190021304636F0DBFBA0
:104DF00001237C5586F800313046F8BD0026FBE7DC
:104E00003815002073B5124E10F8083C8A893370AB
:104E10000D4604468968A6F80120F01C36F0B8FB60
:104E2000AB8903330093032033460022832134F0FF
:104E3000B3FA94F8F90030B1D4F8FC302BB9C4F8C7
:104E4000FC506FF0760002B070BD0020FBE700BFA1
:104E5000FD58002003484FF0FF324FF0FF333BF086
:104E600028BD00BF8C12002070B506460D46FFF726
:104E7000ADFF0446D8B1304637F056FA0D4B1A78DC
:104E8000824204D900221A704FF0FF3070BD0A4BE5
:104E9000187820B100221A706FF00C00F6E7074B6B
:104EA000E3608023A4F8823008342C60EEE76FF0D2
:104EB0000B00EBE70A5A0020FC580020881604007B
:104EC00070B501460546002007F0FCFC0446C8B951
:104ED0000E48452135F0F1F901252B460022BDE8A9
:104EE00070400921032034F06EBA204638F08FFA62
:104EF00050B90136EB799E42F7DB0025204607F0DA
:104F0000F5F9EAE70026F5E70125F7E7C43B0400D9
:104F10002DE9F0470D461946431E88B01446082B6C
:104F200000F25C81DFE813F0090025009C00B0006E
:104F3000EA005A010101390154010222002103A8AB
:104F400036F031FB9DF80C3063F041038DF80C30E6
:104F50009DF80D3043F003038DF80D3002230093CC
:104F6000002203AB0121032034F016FA08B0BDE89B
:104F7000F0871422002103A836F015FBE37A013BE9
:104F8000012B23D8B4F80990B9F1800F1ED821461F
:104F9000002094F80C8007F095FC0746B0B100257E
:104FA000DFF868A22846E27AEEB2B24227D8012A98
:104FB00008F001033ED1002B3DD100F10801B4F807
:104FC0000720384608F0F0FB002840DA904803AB91
:104FD00005224FF48474002553F8041B29B191F87D
:104FE000701004FB010181F80051013A12F0FF0238
:104FF000F2D101230221032034F0E5F9B6E7FFF7EF
:10500000E5FE01350028E1D008AB9A190346C0F847
:105010000CA0A0F8829013F8081B02F8171C08AA2D
:1050200002EB860646F8143C237BC3F3400380F86A
:105030000131B8E733B1B4F8072003A9384608F0C6
:105040006FFBC1E77348452135F037F9BEE7E37AD6
:105050008DF8083001330093002202AB022182E771
:1050600023786B484FF4847202FB0300083037F05A
:10507000FDFD031E18BF012300220321032008B0F9
:10508000BDE8F04734F09FB9B4F80170B7F5807F00
:105090002ED82578DFF878814FF48470454308EBEB
:1050A0000503B3F89230BB4222D34FF0FF334FF0E9
:1050B000FF3259483BF0FDFB00F1080906460A2182
:1050C00048462DF033FE08353A46E11C48463BF091
:1050D00063FC314608EB050009F0E4F8021E09DA2A
:1050E0004E485242452135F0E8F830462DF07EFF1B
:1050F000012300E0002300220421BFE7484D22885D
:105100002B8891B2994202D009B1002B6AD00123B9
:1051100000220521B2E7022B02D1424B01226AE0B4
:10512000012B04BF0323AB7066E000202146B4F8D6
:1051300007500590CDE9030007F0C4FB38B93A48A1
:10514000452135F0BAF801230022072153E7607AA0
:105150000228F8D8B5F5807FF5D804F10A01C4F12A
:10516000FF2404F57F042A4A03AEF6344FF4847713
:105170006318984207DC294603A837F011FD031E87
:1051800018BF0123E0E711F8013B022BDBD807FB36
:105190000323083346F8043BEAE723781C484FF41E
:1051A00084725343C41894F800217AB1D4F80411DE
:1051B00041B10833184408F07FFA002806DB0023C9
:1051C000C4F8043100230022082157E70123FAE73D
:1051D000204608B0BDE8F047FFF772BE02232A461A
:1051E00001464BE7114B6B602A80B4F80530032B66
:1051F00091D10F4B10221A70094808F01FFA0028AD
:105200004FF0000384DA2B8081E700BF881604008A
:1052100038150020193E04008C1200203C3E04008A
:1052200048360020FC580020C43B0400694E0000B2
:105230000A5A002030B500240C70039840F2F15156
:10524000118005780470094C04220178A9420BD220
:1052500014F8011B21B103F8011B01780131017021
:10526000013A12F0FF02F0D1002030BD0B5A0020AD
:1052700007B5074B988019805980002300931A4680
:105280008321042034F088F803B05DF804FB00BFEC
:105290009A5700201FB5094BADF80C001970032375
:1052A0008DF80E100093002203AB8221042034F00D
:1052B00073F8002005B05DF804FB00BF305A0020F1
:1052C0000A4B1A68914206D09A6891420CD008485D
:1052D000492134F0F2BF0022002143F8321003EBE1
:1052E000C203044A5A6070470122F5E78C36002059
:1052F000683E04000000FFFF094B10B41C683CB17D
:105300009C6824B1074810BC452134F0D6BF012465
:1053100043F8341003EBC40310BC9880DA80704764
:105320008C3600207D3E040008B540F2F1539942CE
:1053300006D105480822002136F035F9002008BDC5
:105340006FF01500FBE700BFA15A00202DE9F041E6
:10535000C6B0804616461D464FF47F0206AB03A832
:105360004D9C0393CDE904230F463BF00DFBA04277
:1053700006D21048452134F0A0FF46B0BDE8F081C8
:10538000072103A82DF0A4FF4C9980F800804770F6
:10539000468085808471224603A83BF0FDFABDF863
:1053A000103000930022039B8621042033F0F4FF89
:1053B000E3E700BF963E040001281FB508D002288D
:1053C00014D00B48452105B05DF804EB34F075BFEF
:1053D00000238DF80C3001230093002203AB8521BC
:1053E000042033F0D9FF05B05DF804FB0123F0E79A
:1053F000BC3E040001281FB508D0022814D00B4879
:10540000452105B05DF804EB34F057BF00238DF85B
:105410000C3001230093002203AB8421042033F0DD
:10542000BBFF05B05DF804FB0123F0E7BC3E0400C0
:10543000F0B5C9B008AB4FF47F02CDE90323029366
:10544000294B2A4E9B88ADF8143000254FF6FE7389
:10545000CDF81A508DF81E50ADF816308378C2780A
:10546000078843EA0223ADF818300446FF2330686A
:105470008DF81F3012F060FD0388BB4216D0B06873
:1054800012F05AFD0388BB420FD01948452134F071
:1054900014FF6FF01504231E18BF012300220F21F3
:1054A000042033F090FF49B0F0BD012556F8357067
:1054B00006EBC505EB88ADF81630002FE5D0227954
:1054C000611D02A83BF068FA0023009302AA05A917
:1054D000384612F081FE04460028DCD00246452101
:1054E000044834F0EAFED6E79A5700208C360020B4
:1054F000D03E0400E53E040070B5C8B008AB4FF4E0
:105500007F02204E0293CDE903230023CDF81A3009
:105510008DF81E300F25B388ADF81430ADF8165055
:10552000C378027943EA02230446ADF818300378C1
:105530008DF81F30284610F0FBFB30B9124AB188B5
:10554000284639F067FE114B9D816279A11D02A8A2
:105550003BF022FA00230D48009302AA05A912F09D
:105560003BFE044620B102464521094834F0A5FE21
:10557000231E18BF012300220A21042033F023FF39
:1055800048B070BD9A570020B95A0020E0040020AE
:10559000E53E040030B540F2F154A142039816D123
:1055A000002111700B4C0578017008220178A94286
:1055B0000BD214F8011B21B103F8011B0178013152
:1055C0000170013A12F0FF02F0D1002030BD6FF0FF
:1055D0001500FBE7A15A00202DE9F043AFB0994632
:1055E000431E04AF14464B2B01F26E82DFE813F02A
:1055F0004C005200A800F70017011D0126014C01C4
:1056000056018601B401EC0164017701FD01200A15
:10561000310A4C0A5C0A040232024E026C0A6B0226
:105620008702A402C002DD02F902160334036003FC
:105630008103BD03DD03F20410052E056D058F0502
:10564000AF05F405160638065D068606BC06DC06C0
:10565000090729074707FD031D043B045E04830473
:10566000A704CB044D05D20566079E07D407F207B1
:1056700010084C0870089108C50818092F095A0924
:1056800071099C09B009E809AC37BD46BDE8F04393
:1056900034F08ABA102221469C489D4E35F078FF9E
:1056A0001022A1189B4835F073FF94F820107176F2
:1056B000B4F8213094F82320738332779DB2A38C01
:1056C000F38398B294F82630022B2AD1E8B218F06E
:1056D0005DFDB9F1270F054611D9DFF83C82402264
:1056E00004F12701404635F053FF8C48202204F195
:1056F000670135F04DFF894BC6F80C80336125B149
:1057000087482A46452134F0D8FD2B1E18BF0123B7
:10571000002202210420AC37BD46BDE8F04333F03F
:1057200052BE032B04D11146C0B218F01BFDD0E7C6
:10573000012B41F0CE811021764818F03BFDC8E7DF
:10574000102204F11D017748774EDFF8E081784D93
:1057500035F01EFF10227748214635F019FF227FD1
:10576000E37E43EA02233380A37C88F80030D4F838
:1057700013302B60627C237C43EA02236E4AB9F12A
:105780002D0F138010D904F12D014022624835F00D
:10579000FFFE614818F030FD044628B160482246FB
:1057A000452134F08AFD14E062481DF069FA044690
:1057B0000028F3D1604B98F800201988594B0193C9
:1057C000338800932B685B480EF036FD04460028B2
:1057D000E4D1231E18BF0123002203219AE7574971
:1057E0004B4839F015FBC0B94F4B1B888BB14D4866
:1057F0004E4A514912780988CDE900304C4B4D484A
:105800001B680EF019FD031E18BF0123002204219E
:1058100080E7032017F0CEFFF5E70123F6E70EF04F
:1058200081FC00231A46052174E7206817F0AAFAC4
:10583000031E18BF0123002206216BE72378404A8C
:10584000102B12780DD93F48452134F036FD012345
:1058500000220721042033F0B6FDAC37BD46BDE879
:10586000F0839A4202D938484521EEE71A46611C76
:1058700007F11C0035F04DFE07F11C0017F0A6FAE9
:10588000031E18BF0123E3E72078003818BF01206A
:105890000FF03EFB00231A4608213BE70FF0ECFB1C
:1058A00080F00104E4B218B92848452134F005FD20
:1058B0002346002209212DE72078003818BF012057
:1058C00015F09AFB044620B102464521204834F0E9
:1058D000F4FC231E18BF012300220D211AE715F046
:1058E0006DFE044620B1024645211A4834F0E5FC1D
:1058F000231E18BF012300220E210BE72046AC37E0
:10590000BD46BDE8F043FFF7F7BD00BF1F5A0020BA
:1059100014040020A95A0020615A0020415A002096
:10592000023F04000F5A0020985700202F5A0020F1
:1059300088360020315A0020A0570020BC160400F1
:10594000305A00200E3F0400363F04005F3F040041
:10595000893F0400AC3F040007F11C034FF47022A0
:10596000C7E90423FB60C94B186878601B793B7258
:10597000032107F10C002DF0ABFC04220446B918FA
:10598000C34835F005FE0425C149042207F10C0087
:105990003BF002F8791965700522BE4835F0F8FD34
:1059A000BC49052207F10C003AF0F6FF0523A3706D
:1059B000B9483AF047FA3B8A0093FB6800220B2172
:1059C000284633F0E9FC48E704220021B04835F0CE
:1059D000EAFD08220021AF4835F0E5FDAE483AF077
:1059E00031FA00231A460C2194E62046AC37BD4616
:1059F000BDE8F043FFF71CBD8C22002107F11C001D
:105A000035F0D1FD802342F210707B841CF01CFC29
:105A100007F11C0034F0BEF82279618824880090D8
:105A200007F10C0320461BF035FB024650B19B48A2
:105A3000452134F042FC012300221421042033F0DC
:105A4000C2FC0AE73B8C0093FB691421042033F06D
:105A5000A3FC02E707F11C02618820883AF037FDB9
:105A6000024650B18D48452134F027FC0123002225
:105A70001521042033F0A7FCEFE601230093152144
:105A800007F11C03042033F087FCE6E622796188E5
:105A9000208807F11C033AF025FD024650B17F48EB
:105AA000452134F00AFC012300221621042033F0A2
:105AB0008AFCD2E601230093162107F11C0304207F
:105AC00033F06AFCC9E607F11C02618820883AF0CD
:105AD00015FD024650B17148452134F0EEFB01231B
